{
	"Insurance.sol": {
		"Insurance": {
			"abi": [
				{
					"inputs": [
						{
							"internalType": "uint256",
							"name": "claimAmount",
							"type": "uint256"
						},
						{
							"internalType": "uint256",
							"name": "coverageRemaining",
							"type": "uint256"
						}
					],
					"name": "ClaimExceedsCoverage",
					"type": "error"
				},
				{
					"inputs": [
						{
							"internalType": "uint256",
							"name": "policyId",
							"type": "uint256"
						}
					],
					"name": "NotPolicyOwner",
					"type": "error"
				},
				{
					"inputs": [
						{
							"internalType": "uint256",
							"name": "policyId",
							"type": "uint256"
						}
					],
					"name": "PolicyExpired",
					"type": "error"
				},
				{
					"inputs": [
						{
							"internalType": "uint256",
							"name": "policyId",
							"type": "uint256"
						}
					],
					"name": "PolicyNotActive",
					"type": "error"
				},
				{
					"anonymous": false,
					"inputs": [
						{
							"indexed": true,
							"internalType": "uint256",
							"name": "policyId",
							"type": "uint256"
						}
					],
					"name": "PolicyCancelled",
					"type": "event"
				},
				{
					"anonymous": false,
					"inputs": [
						{
							"indexed": true,
							"internalType": "uint256",
							"name": "policyId",
							"type": "uint256"
						},
						{
							"indexed": false,
							"internalType": "uint256",
							"name": "claimAmount",
							"type": "uint256"
						}
					],
					"name": "PolicyClaimed",
					"type": "event"
				},
				{
					"anonymous": false,
					"inputs": [
						{
							"indexed": true,
							"internalType": "uint256",
							"name": "policyId",
							"type": "uint256"
						},
						{
							"indexed": true,
							"internalType": "address",
							"name": "vehicleOwner",
							"type": "address"
						},
						{
							"indexed": true,
							"internalType": "uint256",
							"name": "vehicleId",
							"type": "uint256"
						},
						{
							"indexed": false,
							"internalType": "uint256",
							"name": "premium",
							"type": "uint256"
						},
						{
							"indexed": false,
							"internalType": "uint256",
							"name": "coverageAmount",
							"type": "uint256"
						},
						{
							"indexed": false,
							"internalType": "uint256",
							"name": "expirationDate",
							"type": "uint256"
						}
					],
					"name": "PolicyPurchased",
					"type": "event"
				},
				{
					"inputs": [
						{
							"internalType": "uint256",
							"name": "_policyId",
							"type": "uint256"
						}
					],
					"name": "cancelPolicy",
					"outputs": [],
					"stateMutability": "nonpayable",
					"type": "function"
				},
				{
					"inputs": [
						{
							"internalType": "uint256",
							"name": "_policyId",
							"type": "uint256"
						},
						{
							"internalType": "uint256",
							"name": "_claimAmount",
							"type": "uint256"
						}
					],
					"name": "claimPolicy",
					"outputs": [],
					"stateMutability": "nonpayable",
					"type": "function"
				},
				{
					"inputs": [
						{
							"internalType": "uint256",
							"name": "_policyId",
							"type": "uint256"
						}
					],
					"name": "getPolicy",
					"outputs": [
						{
							"components": [
								{
									"internalType": "uint256",
									"name": "policyId",
									"type": "uint256"
								},
								{
									"internalType": "address",
									"name": "vehicleOwner",
									"type": "address"
								},
								{
									"internalType": "uint256",
									"name": "vehicleId",
									"type": "uint256"
								},
								{
									"internalType": "uint256",
									"name": "premium",
									"type": "uint256"
								},
								{
									"internalType": "uint256",
									"name": "coverageAmount",
									"type": "uint256"
								},
								{
									"internalType": "uint256",
									"name": "expirationDate",
									"type": "uint256"
								},
								{
									"internalType": "bool",
									"name": "isActive",
									"type": "bool"
								}
							],
							"internalType": "struct Insurance.Policy",
							"name": "",
							"type": "tuple"
						}
					],
					"stateMutability": "view",
					"type": "function"
				},
				{
					"inputs": [
						{
							"internalType": "uint256",
							"name": "_vehicleId",
							"type": "uint256"
						}
					],
					"name": "hasActivePolicy",
					"outputs": [
						{
							"internalType": "bool",
							"name": "",
							"type": "bool"
						}
					],
					"stateMutability": "view",
					"type": "function"
				},
				{
					"inputs": [
						{
							"internalType": "uint256",
							"name": "_vehicleId",
							"type": "uint256"
						},
						{
							"internalType": "uint256",
							"name": "_premium",
							"type": "uint256"
						},
						{
							"internalType": "uint256",
							"name": "_coverageAmount",
							"type": "uint256"
						},
						{
							"internalType": "uint256",
							"name": "_duration",
							"type": "uint256"
						}
					],
					"name": "purchasePolicy",
					"outputs": [],
					"stateMutability": "payable",
					"type": "function"
				}
			],
			"devdoc": {
				"kind": "dev",
				"methods": {
					"cancelPolicy(uint256)": {
						"params": {
							"_policyId": "The ID of the policy being canceled"
						}
					},
					"claimPolicy(uint256,uint256)": {
						"params": {
							"_claimAmount": "The amount being claimed in ETH",
							"_policyId": "The ID of the policy being claimed"
						}
					},
					"getPolicy(uint256)": {
						"params": {
							"_policyId": "The ID of the policy"
						},
						"returns": {
							"_0": "Policy details"
						}
					},
					"hasActivePolicy(uint256)": {
						"params": {
							"_vehicleId": "The ID of the vehicle"
						},
						"returns": {
							"_0": "Boolean indicating if the vehicle has an active policy"
						}
					},
					"purchasePolicy(uint256,uint256,uint256,uint256)": {
						"params": {
							"_coverageAmount": "The maximum coverage amount in ETH",
							"_duration": "The duration of the policy in seconds",
							"_premium": "The premium amount in ETH",
							"_vehicleId": "The ID of the vehicle being insured"
						}
					}
				},
				"title": "Insurance Management Contract",
				"version": 1
			},
			"evm": {
				"assembly": "    /* \"Insurance.sol\":184:4958  contract Insurance {... */\n  mstore(0x40, 0x80)\n  callvalue\n  dup1\n  iszero\n  tag_1\n  jumpi\n  0x00\n  dup1\n  revert\ntag_1:\n  pop\n  dataSize(sub_0)\n  dup1\n  dataOffset(sub_0)\n  0x00\n  codecopy\n  0x00\n  return\nstop\n\nsub_0: assembly {\n        /* \"Insurance.sol\":184:4958  contract Insurance {... */\n      mstore(0x40, 0x80)\n      jumpi(tag_1, lt(calldatasize, 0x04))\n      shr(0xe0, calldataload(0x00))\n      dup1\n      0x2b07fce3\n      eq\n      tag_2\n      jumpi\n      dup1\n      0xb20e8bcc\n      eq\n      tag_3\n      jumpi\n      dup1\n      0xcbb70082\n      eq\n      tag_4\n      jumpi\n      dup1\n      0xcd127e79\n      eq\n      tag_5\n      jumpi\n      dup1\n      0xce81967d\n      eq\n      tag_6\n      jumpi\n    tag_1:\n      0x00\n      dup1\n      revert\n        /* \"Insurance.sol\":4392:4513  function getPolicy(uint256 _policyId) external view returns (Policy memory) {... */\n    tag_2:\n      callvalue\n      dup1\n      iszero\n      tag_7\n      jumpi\n      0x00\n      dup1\n      revert\n    tag_7:\n      pop\n      tag_8\n      0x04\n      dup1\n      calldatasize\n      sub\n      dup2\n      add\n      swap1\n      tag_9\n      swap2\n      swap1\n      tag_10\n      jump\t// in\n    tag_9:\n      tag_11\n      jump\t// in\n    tag_8:\n      mload(0x40)\n      tag_12\n      swap2\n      swap1\n      tag_13\n      jump\t// in\n    tag_12:\n      mload(0x40)\n      dup1\n      swap2\n      sub\n      swap1\n      return\n        /* \"Insurance.sol\":3988:4252  function cancelPolicy(uint256 _policyId) external onlyPolicyOwner(_policyId) {... */\n    tag_3:\n      callvalue\n      dup1\n      iszero\n      tag_14\n      jumpi\n      0x00\n      dup1\n      revert\n    tag_14:\n      pop\n      tag_15\n      0x04\n      dup1\n      calldatasize\n      sub\n      dup2\n      add\n      swap1\n      tag_16\n      swap2\n      swap1\n      tag_10\n      jump\t// in\n    tag_16:\n      tag_17\n      jump\t// in\n    tag_15:\n      stop\n        /* \"Insurance.sol\":1941:2971  function purchasePolicy(... */\n    tag_4:\n      tag_18\n      0x04\n      dup1\n      calldatasize\n      sub\n      dup2\n      add\n      swap1\n      tag_19\n      swap2\n      swap1\n      tag_20\n      jump\t// in\n    tag_19:\n      tag_21\n      jump\t// in\n    tag_18:\n      stop\n        /* \"Insurance.sol\":4700:4953  function hasActivePolicy(uint256 _vehicleId) external view returns (bool) {... */\n    tag_5:\n      callvalue\n      dup1\n      iszero\n      tag_22\n      jumpi\n      0x00\n      dup1\n      revert\n    tag_22:\n      pop\n      tag_23\n      0x04\n      dup1\n      calldatasize\n      sub\n      dup2\n      add\n      swap1\n      tag_24\n      swap2\n      swap1\n      tag_10\n      jump\t// in\n    tag_24:\n      tag_25\n      jump\t// in\n    tag_23:\n      mload(0x40)\n      tag_26\n      swap2\n      swap1\n      tag_27\n      jump\t// in\n    tag_26:\n      mload(0x40)\n      dup1\n      swap2\n      sub\n      swap1\n      return\n        /* \"Insurance.sol\":3145:3873  function claimPolicy(uint256 _policyId, uint256 _claimAmount)... */\n    tag_6:\n      callvalue\n      dup1\n      iszero\n      tag_28\n      jumpi\n      0x00\n      dup1\n      revert\n    tag_28:\n      pop\n      tag_29\n      0x04\n      dup1\n      calldatasize\n      sub\n      dup2\n      add\n      swap1\n      tag_30\n      swap2\n      swap1\n      tag_31\n      jump\t// in\n    tag_30:\n      tag_32\n      jump\t// in\n    tag_29:\n      stop\n        /* \"Insurance.sol\":4392:4513  function getPolicy(uint256 _policyId) external view returns (Policy memory) {... */\n    tag_11:\n        /* \"Insurance.sol\":4453:4466  Policy memory */\n      tag_33\n      tag_34\n      jump\t// in\n    tag_33:\n        /* \"Insurance.sol\":4486:4494  policies */\n      0x01\n        /* \"Insurance.sol\":4486:4505  policies[_policyId] */\n      0x00\n        /* \"Insurance.sol\":4495:4504  _policyId */\n      dup4\n        /* \"Insurance.sol\":4486:4505  policies[_policyId] */\n      dup2\n      mstore\n      0x20\n      add\n      swap1\n      dup2\n      mstore\n      0x20\n      add\n      0x00\n      keccak256\n        /* \"Insurance.sol\":4479:4505  return policies[_policyId] */\n      mload(0x40)\n      dup1\n      0xe0\n      add\n      0x40\n      mstore\n      swap1\n      dup2\n      0x00\n      dup3\n      add\n      sload\n      dup2\n      mstore\n      0x20\n      add\n      0x01\n      dup3\n      add\n      0x00\n      swap1\n      sload\n      swap1\n      0x0100\n      exp\n      swap1\n      div\n      0xffffffffffffffffffffffffffffffffffffffff\n      and\n      0xffffffffffffffffffffffffffffffffffffffff\n      and\n      0xffffffffffffffffffffffffffffffffffffffff\n      and\n      dup2\n      mstore\n      0x20\n      add\n      0x02\n      dup3\n      add\n      sload\n      dup2\n      mstore\n      0x20\n      add\n      0x03\n      dup3\n      add\n      sload\n      dup2\n      mstore\n      0x20\n      add\n      0x04\n      dup3\n      add\n      sload\n      dup2\n      mstore\n      0x20\n      add\n      0x05\n      dup3\n      add\n      sload\n      dup2\n      mstore\n      0x20\n      add\n      0x06\n      dup3\n      add\n      0x00\n      swap1\n      sload\n      swap1\n      0x0100\n      exp\n      swap1\n      div\n      0xff\n      and\n      iszero\n      iszero\n      iszero\n      iszero\n      dup2\n      mstore\n      pop\n      pop\n      swap1\n      pop\n        /* \"Insurance.sol\":4392:4513  function getPolicy(uint256 _policyId) external view returns (Policy memory) {... */\n      swap2\n      swap1\n      pop\n      jump\t// out\n        /* \"Insurance.sol\":3988:4252  function cancelPolicy(uint256 _policyId) external onlyPolicyOwner(_policyId) {... */\n    tag_17:\n        /* \"Insurance.sol\":4054:4063  _policyId */\n      dup1\n        /* \"Insurance.sol\":1359:1369  msg.sender */\n      caller\n        /* \"Insurance.sol\":1323:1369  policies[_policyId].vehicleOwner != msg.sender */\n      0xffffffffffffffffffffffffffffffffffffffff\n      and\n        /* \"Insurance.sol\":1323:1331  policies */\n      0x01\n        /* \"Insurance.sol\":1323:1342  policies[_policyId] */\n      0x00\n        /* \"Insurance.sol\":1332:1341  _policyId */\n      dup4\n        /* \"Insurance.sol\":1323:1342  policies[_policyId] */\n      dup2\n      mstore\n      0x20\n      add\n      swap1\n      dup2\n      mstore\n      0x20\n      add\n      0x00\n      keccak256\n        /* \"Insurance.sol\":1323:1355  policies[_policyId].vehicleOwner */\n      0x01\n      add\n      0x00\n      swap1\n      sload\n      swap1\n      0x0100\n      exp\n      swap1\n      div\n      0xffffffffffffffffffffffffffffffffffffffff\n      and\n        /* \"Insurance.sol\":1323:1369  policies[_policyId].vehicleOwner != msg.sender */\n      0xffffffffffffffffffffffffffffffffffffffff\n      and\n      eq\n        /* \"Insurance.sol\":1319:1430  if (policies[_policyId].vehicleOwner != msg.sender) {... */\n      tag_37\n      jumpi\n        /* \"Insurance.sol\":1408:1417  _policyId */\n      dup1\n        /* \"Insurance.sol\":1393:1418  NotPolicyOwner(_policyId) */\n      mload(0x40)\n      0xbc0ff02e00000000000000000000000000000000000000000000000000000000\n      dup2\n      mstore\n      0x04\n      add\n      tag_38\n      swap2\n      swap1\n      tag_39\n      jump\t// in\n    tag_38:\n      mload(0x40)\n      dup1\n      swap2\n      sub\n      swap1\n      revert\n        /* \"Insurance.sol\":1319:1430  if (policies[_policyId].vehicleOwner != msg.sender) {... */\n    tag_37:\n        /* \"Insurance.sol\":4072:4093  Policy storage policy */\n      0x00\n        /* \"Insurance.sol\":4096:4104  policies */\n      0x01\n        /* \"Insurance.sol\":4096:4115  policies[_policyId] */\n      0x00\n        /* \"Insurance.sol\":4105:4114  _policyId */\n      dup5\n        /* \"Insurance.sol\":4096:4115  policies[_policyId] */\n      dup2\n      mstore\n      0x20\n      add\n      swap1\n      dup2\n      mstore\n      0x20\n      add\n      0x00\n      keccak256\n        /* \"Insurance.sol\":4072:4115  Policy storage policy = policies[_policyId] */\n      swap1\n      pop\n        /* \"Insurance.sol\":4130:4136  policy */\n      dup1\n        /* \"Insurance.sol\":4130:4145  policy.isActive */\n      0x06\n      add\n      0x00\n      swap1\n      sload\n      swap1\n      0x0100\n      exp\n      swap1\n      div\n      0xff\n      and\n        /* \"Insurance.sol\":4122:4176  require(policy.isActive, \"Policy is already inactive\") */\n      tag_41\n      jumpi\n      mload(0x40)\n      0x08c379a000000000000000000000000000000000000000000000000000000000\n      dup2\n      mstore\n      0x04\n      add\n      tag_42\n      swap1\n      tag_43\n      jump\t// in\n    tag_42:\n      mload(0x40)\n      dup1\n      swap2\n      sub\n      swap1\n      revert\n    tag_41:\n        /* \"Insurance.sol\":4203:4208  false */\n      0x00\n        /* \"Insurance.sol\":4185:4191  policy */\n      dup2\n        /* \"Insurance.sol\":4185:4200  policy.isActive */\n      0x06\n      add\n      0x00\n        /* \"Insurance.sol\":4185:4208  policy.isActive = false */\n      0x0100\n      exp\n      dup2\n      sload\n      dup2\n      0xff\n      mul\n      not\n      and\n      swap1\n      dup4\n      iszero\n      iszero\n      mul\n      or\n      swap1\n      sstore\n      pop\n        /* \"Insurance.sol\":4238:4247  _policyId */\n      dup3\n        /* \"Insurance.sol\":4222:4248  PolicyCancelled(_policyId) */\n      0xbb1ae509b65d9486a686f3f1b0435353031b5607109dc80aa4d063887e10f3e8\n      mload(0x40)\n      mload(0x40)\n      dup1\n      swap2\n      sub\n      swap1\n      log2\n        /* \"Insurance.sol\":4065:4252  {... */\n      pop\n        /* \"Insurance.sol\":3988:4252  function cancelPolicy(uint256 _policyId) external onlyPolicyOwner(_policyId) {... */\n      pop\n      pop\n      jump\t// out\n        /* \"Insurance.sol\":1941:2971  function purchasePolicy(... */\n    tag_21:\n        /* \"Insurance.sol\":2120:2140  uint256 premiumInWei */\n      0x00\n        /* \"Insurance.sol\":2154:2161  1 ether */\n      0x0de0b6b3a7640000\n        /* \"Insurance.sol\":2143:2151  _premium */\n      dup5\n        /* \"Insurance.sol\":2143:2161  _premium * 1 ether */\n      tag_45\n      swap2\n      swap1\n      tag_46\n      jump\t// in\n    tag_45:\n        /* \"Insurance.sol\":2120:2161  uint256 premiumInWei = _premium * 1 ether */\n      swap1\n      pop\n        /* \"Insurance.sol\":2172:2199  uint256 coverageAmountInWei */\n      0x00\n        /* \"Insurance.sol\":2220:2227  1 ether */\n      0x0de0b6b3a7640000\n        /* \"Insurance.sol\":2202:2217  _coverageAmount */\n      dup5\n        /* \"Insurance.sol\":2202:2227  _coverageAmount * 1 ether */\n      tag_47\n      swap2\n      swap1\n      tag_46\n      jump\t// in\n    tag_47:\n        /* \"Insurance.sol\":2172:2227  uint256 coverageAmountInWei = _coverageAmount * 1 ether */\n      swap1\n      pop\n        /* \"Insurance.sol\":2271:2283  premiumInWei */\n      dup2\n        /* \"Insurance.sol\":2258:2267  msg.value */\n      callvalue\n        /* \"Insurance.sol\":2258:2283  msg.value == premiumInWei */\n      eq\n        /* \"Insurance.sol\":2250:2312  require(msg.value == premiumInWei, \"Incorrect premium amount\") */\n      tag_48\n      jumpi\n      mload(0x40)\n      0x08c379a000000000000000000000000000000000000000000000000000000000\n      dup2\n      mstore\n      0x04\n      add\n      tag_49\n      swap1\n      tag_50\n      jump\t// in\n    tag_49:\n      mload(0x40)\n      dup1\n      swap2\n      sub\n      swap1\n      revert\n    tag_48:\n        /* \"Insurance.sol\":2325:2338  policyCounter */\n      0x00\n      dup1\n        /* \"Insurance.sol\":2325:2340  policyCounter++ */\n      dup2\n      sload\n      dup1\n      swap3\n      swap2\n      swap1\n      tag_51\n      swap1\n      tag_52\n      jump\t// in\n    tag_51:\n      swap2\n      swap1\n      pop\n      sstore\n      pop\n        /* \"Insurance.sol\":2377:2682  Policy({... */\n      mload(0x40)\n      dup1\n      0xe0\n      add\n      0x40\n      mstore\n      dup1\n        /* \"Insurance.sol\":2409:2422  policyCounter */\n      sload(0x00)\n        /* \"Insurance.sol\":2377:2682  Policy({... */\n      dup2\n      mstore\n      0x20\n      add\n        /* \"Insurance.sol\":2451:2461  msg.sender */\n      caller\n        /* \"Insurance.sol\":2377:2682  Policy({... */\n      0xffffffffffffffffffffffffffffffffffffffff\n      and\n      dup2\n      mstore\n      0x20\n      add\n        /* \"Insurance.sol\":2487:2497  _vehicleId */\n      dup8\n        /* \"Insurance.sol\":2377:2682  Policy({... */\n      dup2\n      mstore\n      0x20\n      add\n        /* \"Insurance.sol\":2521:2533  premiumInWei */\n      dup4\n        /* \"Insurance.sol\":2377:2682  Policy({... */\n      dup2\n      mstore\n      0x20\n      add\n        /* \"Insurance.sol\":2564:2583  coverageAmountInWei */\n      dup3\n        /* \"Insurance.sol\":2377:2682  Policy({... */\n      dup2\n      mstore\n      0x20\n      add\n        /* \"Insurance.sol\":2632:2641  _duration */\n      dup5\n        /* \"Insurance.sol\":2614:2629  block.timestamp */\n      timestamp\n        /* \"Insurance.sol\":2614:2641  block.timestamp + _duration */\n      tag_53\n      swap2\n      swap1\n      tag_54\n      jump\t// in\n    tag_53:\n        /* \"Insurance.sol\":2377:2682  Policy({... */\n      dup2\n      mstore\n      0x20\n      add\n        /* \"Insurance.sol\":2666:2670  true */\n      0x01\n        /* \"Insurance.sol\":2377:2682  Policy({... */\n      iszero\n      iszero\n      dup2\n      mstore\n      pop\n        /* \"Insurance.sol\":2351:2359  policies */\n      0x01\n        /* \"Insurance.sol\":2351:2374  policies[policyCounter] */\n      0x00\n        /* \"Insurance.sol\":2360:2373  policyCounter */\n      dup1\n      sload\n        /* \"Insurance.sol\":2351:2374  policies[policyCounter] */\n      dup2\n      mstore\n      0x20\n      add\n      swap1\n      dup2\n      mstore\n      0x20\n      add\n      0x00\n      keccak256\n        /* \"Insurance.sol\":2351:2682  policies[policyCounter] = Policy({... */\n      0x00\n      dup3\n      add\n      mload\n      dup2\n      0x00\n      add\n      sstore\n      0x20\n      dup3\n      add\n      mload\n      dup2\n      0x01\n      add\n      exp(0x0100, 0x00)\n      dup2\n      sload\n      dup2\n      0xffffffffffffffffffffffffffffffffffffffff\n      mul\n      not\n      and\n      swap1\n      dup4\n      0xffffffffffffffffffffffffffffffffffffffff\n      and\n      mul\n      or\n      swap1\n      sstore\n      pop\n      0x40\n      dup3\n      add\n      mload\n      dup2\n      0x02\n      add\n      sstore\n      0x60\n      dup3\n      add\n      mload\n      dup2\n      0x03\n      add\n      sstore\n      0x80\n      dup3\n      add\n      mload\n      dup2\n      0x04\n      add\n      sstore\n      0xa0\n      dup3\n      add\n      mload\n      dup2\n      0x05\n      add\n      sstore\n      0xc0\n      dup3\n      add\n      mload\n      dup2\n      0x06\n      add\n      exp(0x0100, 0x00)\n      dup2\n      sload\n      dup2\n      0xff\n      mul\n      not\n      and\n      swap1\n      dup4\n      iszero\n      iszero\n      mul\n      or\n      swap1\n      sstore\n      pop\n      swap1\n      pop\n      pop\n        /* \"Insurance.sol\":2725:2738  policyCounter */\n      sload(0x00)\n        /* \"Insurance.sol\":2695:2710  vehicleToPolicy */\n      0x02\n        /* \"Insurance.sol\":2695:2722  vehicleToPolicy[_vehicleId] */\n      0x00\n        /* \"Insurance.sol\":2711:2721  _vehicleId */\n      dup9\n        /* \"Insurance.sol\":2695:2722  vehicleToPolicy[_vehicleId] */\n      dup2\n      mstore\n      0x20\n      add\n      swap1\n      dup2\n      mstore\n      0x20\n      add\n      0x00\n      keccak256\n        /* \"Insurance.sol\":2695:2738  vehicleToPolicy[_vehicleId] = policyCounter */\n      dup2\n      swap1\n      sstore\n      pop\n        /* \"Insurance.sol\":2839:2849  _vehicleId */\n      dup6\n        /* \"Insurance.sol\":2814:2824  msg.sender */\n      caller\n        /* \"Insurance.sol\":2756:2963  PolicyPurchased(... */\n      0xffffffffffffffffffffffffffffffffffffffff\n      and\n        /* \"Insurance.sol\":2786:2799  policyCounter */\n      sload(0x00)\n        /* \"Insurance.sol\":2756:2963  PolicyPurchased(... */\n      0x2b622e2a83280e99185ddd0577a28a16ea5f0451aaef6f930bd809eb6c378cc4\n        /* \"Insurance.sol\":2864:2876  premiumInWei */\n      dup6\n        /* \"Insurance.sol\":2891:2910  coverageAmountInWei */\n      dup6\n        /* \"Insurance.sol\":2943:2952  _duration */\n      dup9\n        /* \"Insurance.sol\":2925:2940  block.timestamp */\n      timestamp\n        /* \"Insurance.sol\":2925:2952  block.timestamp + _duration */\n      tag_55\n      swap2\n      swap1\n      tag_54\n      jump\t// in\n    tag_55:\n        /* \"Insurance.sol\":2756:2963  PolicyPurchased(... */\n      mload(0x40)\n      tag_56\n      swap4\n      swap3\n      swap2\n      swap1\n      tag_57\n      jump\t// in\n    tag_56:\n      mload(0x40)\n      dup1\n      swap2\n      sub\n      swap1\n      log4\n        /* \"Insurance.sol\":2109:2971  {... */\n      pop\n      pop\n        /* \"Insurance.sol\":1941:2971  function purchasePolicy(... */\n      pop\n      pop\n      pop\n      pop\n      jump\t// out\n        /* \"Insurance.sol\":4700:4953  function hasActivePolicy(uint256 _vehicleId) external view returns (bool) {... */\n    tag_25:\n        /* \"Insurance.sol\":4768:4772  bool */\n      0x00\n        /* \"Insurance.sol\":4781:4797  uint256 policyId */\n      dup1\n        /* \"Insurance.sol\":4800:4815  vehicleToPolicy */\n      0x02\n        /* \"Insurance.sol\":4800:4827  vehicleToPolicy[_vehicleId] */\n      0x00\n        /* \"Insurance.sol\":4816:4826  _vehicleId */\n      dup5\n        /* \"Insurance.sol\":4800:4827  vehicleToPolicy[_vehicleId] */\n      dup2\n      mstore\n      0x20\n      add\n      swap1\n      dup2\n      mstore\n      0x20\n      add\n      0x00\n      keccak256\n      sload\n        /* \"Insurance.sol\":4781:4827  uint256 policyId = vehicleToPolicy[_vehicleId] */\n      swap1\n      pop\n        /* \"Insurance.sol\":4834:4855  Policy storage policy */\n      0x00\n        /* \"Insurance.sol\":4858:4866  policies */\n      0x01\n        /* \"Insurance.sol\":4858:4876  policies[policyId] */\n      0x00\n        /* \"Insurance.sol\":4867:4875  policyId */\n      dup4\n        /* \"Insurance.sol\":4858:4876  policies[policyId] */\n      dup2\n      mstore\n      0x20\n      add\n      swap1\n      dup2\n      mstore\n      0x20\n      add\n      0x00\n      keccak256\n        /* \"Insurance.sol\":4834:4876  Policy storage policy = policies[policyId] */\n      swap1\n      pop\n        /* \"Insurance.sol\":4890:4896  policy */\n      dup1\n        /* \"Insurance.sol\":4890:4905  policy.isActive */\n      0x06\n      add\n      0x00\n      swap1\n      sload\n      swap1\n      0x0100\n      exp\n      swap1\n      div\n      0xff\n      and\n        /* \"Insurance.sol\":4890:4949  policy.isActive && block.timestamp <= policy.expirationDate */\n      dup1\n      iszero\n      tag_59\n      jumpi\n      pop\n        /* \"Insurance.sol\":4928:4934  policy */\n      dup1\n        /* \"Insurance.sol\":4928:4949  policy.expirationDate */\n      0x05\n      add\n      sload\n        /* \"Insurance.sol\":4909:4924  block.timestamp */\n      timestamp\n        /* \"Insurance.sol\":4909:4949  block.timestamp <= policy.expirationDate */\n      gt\n      iszero\n        /* \"Insurance.sol\":4890:4949  policy.isActive && block.timestamp <= policy.expirationDate */\n    tag_59:\n        /* \"Insurance.sol\":4883:4949  return policy.isActive && block.timestamp <= policy.expirationDate */\n      swap3\n      pop\n      pop\n      pop\n        /* \"Insurance.sol\":4700:4953  function hasActivePolicy(uint256 _vehicleId) external view returns (bool) {... */\n      swap2\n      swap1\n      pop\n      jump\t// out\n        /* \"Insurance.sol\":3145:3873  function claimPolicy(uint256 _policyId, uint256 _claimAmount)... */\n    tag_32:\n        /* \"Insurance.sol\":3250:3259  _policyId */\n      dup2\n        /* \"Insurance.sol\":1359:1369  msg.sender */\n      caller\n        /* \"Insurance.sol\":1323:1369  policies[_policyId].vehicleOwner != msg.sender */\n      0xffffffffffffffffffffffffffffffffffffffff\n      and\n        /* \"Insurance.sol\":1323:1331  policies */\n      0x01\n        /* \"Insurance.sol\":1323:1342  policies[_policyId] */\n      0x00\n        /* \"Insurance.sol\":1332:1341  _policyId */\n      dup4\n        /* \"Insurance.sol\":1323:1342  policies[_policyId] */\n      dup2\n      mstore\n      0x20\n      add\n      swap1\n      dup2\n      mstore\n      0x20\n      add\n      0x00\n      keccak256\n        /* \"Insurance.sol\":1323:1355  policies[_policyId].vehicleOwner */\n      0x01\n      add\n      0x00\n      swap1\n      sload\n      swap1\n      0x0100\n      exp\n      swap1\n      div\n      0xffffffffffffffffffffffffffffffffffffffff\n      and\n        /* \"Insurance.sol\":1323:1369  policies[_policyId].vehicleOwner != msg.sender */\n      0xffffffffffffffffffffffffffffffffffffffff\n      and\n      eq\n        /* \"Insurance.sol\":1319:1430  if (policies[_policyId].vehicleOwner != msg.sender) {... */\n      tag_61\n      jumpi\n        /* \"Insurance.sol\":1408:1417  _policyId */\n      dup1\n        /* \"Insurance.sol\":1393:1418  NotPolicyOwner(_policyId) */\n      mload(0x40)\n      0xbc0ff02e00000000000000000000000000000000000000000000000000000000\n      dup2\n      mstore\n      0x04\n      add\n      tag_62\n      swap2\n      swap1\n      tag_39\n      jump\t// in\n    tag_62:\n      mload(0x40)\n      dup1\n      swap2\n      sub\n      swap1\n      revert\n        /* \"Insurance.sol\":1319:1430  if (policies[_policyId].vehicleOwner != msg.sender) {... */\n    tag_61:\n        /* \"Insurance.sol\":3287:3296  _policyId */\n      dup3\n        /* \"Insurance.sol\":1518:1526  policies */\n      0x01\n        /* \"Insurance.sol\":1518:1537  policies[_policyId] */\n      0x00\n        /* \"Insurance.sol\":1527:1536  _policyId */\n      dup3\n        /* \"Insurance.sol\":1518:1537  policies[_policyId] */\n      dup2\n      mstore\n      0x20\n      add\n      swap1\n      dup2\n      mstore\n      0x20\n      add\n      0x00\n      keccak256\n        /* \"Insurance.sol\":1518:1546  policies[_policyId].isActive */\n      0x06\n      add\n      0x00\n      swap1\n      sload\n      swap1\n      0x0100\n      exp\n      swap1\n      div\n      0xff\n      and\n        /* \"Insurance.sol\":1513:1608  if (!policies[_policyId].isActive) {... */\n      tag_64\n      jumpi\n        /* \"Insurance.sol\":1586:1595  _policyId */\n      dup1\n        /* \"Insurance.sol\":1570:1596  PolicyNotActive(_policyId) */\n      mload(0x40)\n      0xa3068e7b00000000000000000000000000000000000000000000000000000000\n      dup2\n      mstore\n      0x04\n      add\n      tag_65\n      swap2\n      swap1\n      tag_39\n      jump\t// in\n    tag_65:\n      mload(0x40)\n      dup1\n      swap2\n      sub\n      swap1\n      revert\n        /* \"Insurance.sol\":1513:1608  if (!policies[_policyId].isActive) {... */\n    tag_64:\n        /* \"Insurance.sol\":3314:3335  Policy storage policy */\n      0x00\n        /* \"Insurance.sol\":3338:3346  policies */\n      0x01\n        /* \"Insurance.sol\":3338:3357  policies[_policyId] */\n      0x00\n        /* \"Insurance.sol\":3347:3356  _policyId */\n      dup7\n        /* \"Insurance.sol\":3338:3357  policies[_policyId] */\n      dup2\n      mstore\n      0x20\n      add\n      swap1\n      dup2\n      mstore\n      0x20\n      add\n      0x00\n      keccak256\n        /* \"Insurance.sol\":3314:3357  Policy storage policy = policies[_policyId] */\n      swap1\n      pop\n        /* \"Insurance.sol\":3368:3392  uint256 claimAmountInWei */\n      0x00\n        /* \"Insurance.sol\":3410:3417  1 ether */\n      0x0de0b6b3a7640000\n        /* \"Insurance.sol\":3395:3407  _claimAmount */\n      dup6\n        /* \"Insurance.sol\":3395:3417  _claimAmount * 1 ether */\n      tag_67\n      swap2\n      swap1\n      tag_46\n      jump\t// in\n    tag_67:\n        /* \"Insurance.sol\":3368:3417  uint256 claimAmountInWei = _claimAmount * 1 ether */\n      swap1\n      pop\n        /* \"Insurance.sol\":3452:3458  policy */\n      dup2\n        /* \"Insurance.sol\":3452:3473  policy.expirationDate */\n      0x05\n      add\n      sload\n        /* \"Insurance.sol\":3434:3449  block.timestamp */\n      timestamp\n        /* \"Insurance.sol\":3434:3473  block.timestamp > policy.expirationDate */\n      gt\n        /* \"Insurance.sol\":3430:3533  if (block.timestamp > policy.expirationDate) {... */\n      iszero\n      tag_68\n      jumpi\n        /* \"Insurance.sol\":3511:3520  _policyId */\n      dup6\n        /* \"Insurance.sol\":3497:3521  PolicyExpired(_policyId) */\n      mload(0x40)\n      0xb22aa54100000000000000000000000000000000000000000000000000000000\n      dup2\n      mstore\n      0x04\n      add\n      tag_69\n      swap2\n      swap1\n      tag_39\n      jump\t// in\n    tag_69:\n      mload(0x40)\n      dup1\n      swap2\n      sub\n      swap1\n      revert\n        /* \"Insurance.sol\":3430:3533  if (block.timestamp > policy.expirationDate) {... */\n    tag_68:\n        /* \"Insurance.sol\":3568:3574  policy */\n      dup2\n        /* \"Insurance.sol\":3568:3589  policy.coverageAmount */\n      0x04\n      add\n      sload\n        /* \"Insurance.sol\":3549:3565  claimAmountInWei */\n      dup2\n        /* \"Insurance.sol\":3549:3589  claimAmountInWei > policy.coverageAmount */\n      gt\n        /* \"Insurance.sol\":3545:3686  if (claimAmountInWei > policy.coverageAmount) {... */\n      iszero\n      tag_70\n      jumpi\n        /* \"Insurance.sol\":3634:3650  claimAmountInWei */\n      dup1\n        /* \"Insurance.sol\":3652:3658  policy */\n      dup3\n        /* \"Insurance.sol\":3652:3673  policy.coverageAmount */\n      0x04\n      add\n      sload\n        /* \"Insurance.sol\":3613:3674  ClaimExceedsCoverage(claimAmountInWei, policy.coverageAmount) */\n      mload(0x40)\n      0xbd2a227f00000000000000000000000000000000000000000000000000000000\n      dup2\n      mstore\n      0x04\n      add\n      tag_71\n      swap3\n      swap2\n      swap1\n      tag_72\n      jump\t// in\n    tag_71:\n      mload(0x40)\n      dup1\n      swap2\n      sub\n      swap1\n      revert\n        /* \"Insurance.sol\":3545:3686  if (claimAmountInWei > policy.coverageAmount) {... */\n    tag_70:\n        /* \"Insurance.sol\":3723:3739  claimAmountInWei */\n      dup1\n        /* \"Insurance.sol\":3698:3704  policy */\n      dup3\n        /* \"Insurance.sol\":3698:3719  policy.coverageAmount */\n      0x04\n      add\n      0x00\n        /* \"Insurance.sol\":3698:3739  policy.coverageAmount -= claimAmountInWei */\n      dup3\n      dup3\n      sload\n      tag_73\n      swap2\n      swap1\n      tag_74\n      jump\t// in\n    tag_73:\n      swap3\n      pop\n      pop\n      dup2\n      swap1\n      sstore\n      pop\n        /* \"Insurance.sol\":3758:3764  policy */\n      dup2\n        /* \"Insurance.sol\":3758:3777  policy.vehicleOwner */\n      0x01\n      add\n      0x00\n      swap1\n      sload\n      swap1\n      0x0100\n      exp\n      swap1\n      div\n      0xffffffffffffffffffffffffffffffffffffffff\n      and\n        /* \"Insurance.sol\":3750:3787  payable(policy.vehicleOwner).transfer */\n      0xffffffffffffffffffffffffffffffffffffffff\n      and\n        /* \"Insurance.sol\":3750:3805  payable(policy.vehicleOwner).transfer(claimAmountInWei) */\n      0x08fc\n        /* \"Insurance.sol\":3788:3804  claimAmountInWei */\n      dup3\n        /* \"Insurance.sol\":3750:3805  payable(policy.vehicleOwner).transfer(claimAmountInWei) */\n      swap1\n      dup2\n      iszero\n      mul\n      swap1\n      mload(0x40)\n      0x00\n      mload(0x40)\n      dup1\n      dup4\n      sub\n      dup2\n      dup6\n      dup9\n      dup9\n      call\n      swap4\n      pop\n      pop\n      pop\n      pop\n      iszero\n      dup1\n      iszero\n      tag_76\n      jumpi\n      returndatasize\n      0x00\n      dup1\n      returndatacopy\n      revert(0x00, returndatasize)\n    tag_76:\n      pop\n        /* \"Insurance.sol\":3837:3846  _policyId */\n      dup6\n        /* \"Insurance.sol\":3823:3865  PolicyClaimed(_policyId, claimAmountInWei) */\n      0xc9d92d603dc7645c578a271dc9dec46855d3c0cdbdc48d00399a438907cfa1cb\n        /* \"Insurance.sol\":3848:3864  claimAmountInWei */\n      dup3\n        /* \"Insurance.sol\":3823:3865  PolicyClaimed(_policyId, claimAmountInWei) */\n      mload(0x40)\n      tag_77\n      swap2\n      swap1\n      tag_39\n      jump\t// in\n    tag_77:\n      mload(0x40)\n      dup1\n      swap2\n      sub\n      swap1\n      log2\n        /* \"Insurance.sol\":3303:3873  {... */\n      pop\n      pop\n        /* \"Insurance.sol\":1440:1441  _ */\n      pop\n        /* \"Insurance.sol\":3145:3873  function claimPolicy(uint256 _policyId, uint256 _claimAmount)... */\n      pop\n      pop\n      pop\n      jump\t// out\n    tag_34:\n      mload(0x40)\n      dup1\n      0xe0\n      add\n      0x40\n      mstore\n      dup1\n      0x00\n      dup2\n      mstore\n      0x20\n      add\n      and(0xffffffffffffffffffffffffffffffffffffffff, 0x00)\n      dup2\n      mstore\n      0x20\n      add\n      0x00\n      dup2\n      mstore\n      0x20\n      add\n      0x00\n      dup2\n      mstore\n      0x20\n      add\n      0x00\n      dup2\n      mstore\n      0x20\n      add\n      0x00\n      dup2\n      mstore\n      0x20\n      add\n      iszero(iszero(0x00))\n      dup2\n      mstore\n      pop\n      swap1\n      jump\t// out\n        /* \"#utility.yul\":88:205   */\n    tag_79:\n        /* \"#utility.yul\":197:198   */\n      0x00\n        /* \"#utility.yul\":194:195   */\n      dup1\n        /* \"#utility.yul\":187:199   */\n      revert\n        /* \"#utility.yul\":334:411   */\n    tag_81:\n        /* \"#utility.yul\":371:378   */\n      0x00\n        /* \"#utility.yul\":400:405   */\n      dup2\n        /* \"#utility.yul\":389:405   */\n      swap1\n      pop\n        /* \"#utility.yul\":334:411   */\n      swap2\n      swap1\n      pop\n      jump\t// out\n        /* \"#utility.yul\":417:539   */\n    tag_82:\n        /* \"#utility.yul\":490:514   */\n      tag_105\n        /* \"#utility.yul\":508:513   */\n      dup2\n        /* \"#utility.yul\":490:514   */\n      tag_81\n      jump\t// in\n    tag_105:\n        /* \"#utility.yul\":483:488   */\n      dup2\n        /* \"#utility.yul\":480:515   */\n      eq\n        /* \"#utility.yul\":470:533   */\n      tag_106\n      jumpi\n        /* \"#utility.yul\":529:530   */\n      0x00\n        /* \"#utility.yul\":526:527   */\n      dup1\n        /* \"#utility.yul\":519:531   */\n      revert\n        /* \"#utility.yul\":470:533   */\n    tag_106:\n        /* \"#utility.yul\":417:539   */\n      pop\n      jump\t// out\n        /* \"#utility.yul\":545:684   */\n    tag_83:\n        /* \"#utility.yul\":591:596   */\n      0x00\n        /* \"#utility.yul\":629:635   */\n      dup2\n        /* \"#utility.yul\":616:636   */\n      calldataload\n        /* \"#utility.yul\":607:636   */\n      swap1\n      pop\n        /* \"#utility.yul\":645:678   */\n      tag_108\n        /* \"#utility.yul\":672:677   */\n      dup2\n        /* \"#utility.yul\":645:678   */\n      tag_82\n      jump\t// in\n    tag_108:\n        /* \"#utility.yul\":545:684   */\n      swap3\n      swap2\n      pop\n      pop\n      jump\t// out\n        /* \"#utility.yul\":690:1019   */\n    tag_10:\n        /* \"#utility.yul\":749:755   */\n      0x00\n        /* \"#utility.yul\":798:800   */\n      0x20\n        /* \"#utility.yul\":786:795   */\n      dup3\n        /* \"#utility.yul\":777:784   */\n      dup5\n        /* \"#utility.yul\":773:796   */\n      sub\n        /* \"#utility.yul\":769:801   */\n      slt\n        /* \"#utility.yul\":766:885   */\n      iszero\n      tag_110\n      jumpi\n        /* \"#utility.yul\":804:883   */\n      tag_111\n      tag_79\n      jump\t// in\n    tag_111:\n        /* \"#utility.yul\":766:885   */\n    tag_110:\n        /* \"#utility.yul\":924:925   */\n      0x00\n        /* \"#utility.yul\":949:1002   */\n      tag_112\n        /* \"#utility.yul\":994:1001   */\n      dup5\n        /* \"#utility.yul\":985:991   */\n      dup3\n        /* \"#utility.yul\":974:983   */\n      dup6\n        /* \"#utility.yul\":970:992   */\n      add\n        /* \"#utility.yul\":949:1002   */\n      tag_83\n      jump\t// in\n    tag_112:\n        /* \"#utility.yul\":939:1002   */\n      swap2\n      pop\n        /* \"#utility.yul\":895:1012   */\n      pop\n        /* \"#utility.yul\":690:1019   */\n      swap3\n      swap2\n      pop\n      pop\n      jump\t// out\n        /* \"#utility.yul\":1025:1133   */\n    tag_84:\n        /* \"#utility.yul\":1102:1126   */\n      tag_114\n        /* \"#utility.yul\":1120:1125   */\n      dup2\n        /* \"#utility.yul\":1102:1126   */\n      tag_81\n      jump\t// in\n    tag_114:\n        /* \"#utility.yul\":1097:1100   */\n      dup3\n        /* \"#utility.yul\":1090:1127   */\n      mstore\n        /* \"#utility.yul\":1025:1133   */\n      pop\n      pop\n      jump\t// out\n        /* \"#utility.yul\":1139:1265   */\n    tag_85:\n        /* \"#utility.yul\":1176:1183   */\n      0x00\n        /* \"#utility.yul\":1216:1258   */\n      0xffffffffffffffffffffffffffffffffffffffff\n        /* \"#utility.yul\":1209:1214   */\n      dup3\n        /* \"#utility.yul\":1205:1259   */\n      and\n        /* \"#utility.yul\":1194:1259   */\n      swap1\n      pop\n        /* \"#utility.yul\":1139:1265   */\n      swap2\n      swap1\n      pop\n      jump\t// out\n        /* \"#utility.yul\":1271:1367   */\n    tag_86:\n        /* \"#utility.yul\":1308:1315   */\n      0x00\n        /* \"#utility.yul\":1337:1361   */\n      tag_117\n        /* \"#utility.yul\":1355:1360   */\n      dup3\n        /* \"#utility.yul\":1337:1361   */\n      tag_85\n      jump\t// in\n    tag_117:\n        /* \"#utility.yul\":1326:1361   */\n      swap1\n      pop\n        /* \"#utility.yul\":1271:1367   */\n      swap2\n      swap1\n      pop\n      jump\t// out\n        /* \"#utility.yul\":1373:1481   */\n    tag_87:\n        /* \"#utility.yul\":1450:1474   */\n      tag_119\n        /* \"#utility.yul\":1468:1473   */\n      dup2\n        /* \"#utility.yul\":1450:1474   */\n      tag_86\n      jump\t// in\n    tag_119:\n        /* \"#utility.yul\":1445:1448   */\n      dup3\n        /* \"#utility.yul\":1438:1475   */\n      mstore\n        /* \"#utility.yul\":1373:1481   */\n      pop\n      pop\n      jump\t// out\n        /* \"#utility.yul\":1487:1577   */\n    tag_88:\n        /* \"#utility.yul\":1521:1528   */\n      0x00\n        /* \"#utility.yul\":1564:1569   */\n      dup2\n        /* \"#utility.yul\":1557:1570   */\n      iszero\n        /* \"#utility.yul\":1550:1571   */\n      iszero\n        /* \"#utility.yul\":1539:1571   */\n      swap1\n      pop\n        /* \"#utility.yul\":1487:1577   */\n      swap2\n      swap1\n      pop\n      jump\t// out\n        /* \"#utility.yul\":1583:1682   */\n    tag_89:\n        /* \"#utility.yul\":1654:1675   */\n      tag_122\n        /* \"#utility.yul\":1669:1674   */\n      dup2\n        /* \"#utility.yul\":1654:1675   */\n      tag_88\n      jump\t// in\n    tag_122:\n        /* \"#utility.yul\":1649:1652   */\n      dup3\n        /* \"#utility.yul\":1642:1676   */\n      mstore\n        /* \"#utility.yul\":1583:1682   */\n      pop\n      pop\n      jump\t// out\n        /* \"#utility.yul\":1746:3155   */\n    tag_90:\n        /* \"#utility.yul\":1887:1891   */\n      0xe0\n        /* \"#utility.yul\":1882:1885   */\n      dup3\n        /* \"#utility.yul\":1878:1892   */\n      add\n        /* \"#utility.yul\":1978:1982   */\n      0x00\n        /* \"#utility.yul\":1971:1976   */\n      dup3\n        /* \"#utility.yul\":1967:1983   */\n      add\n        /* \"#utility.yul\":1961:1984   */\n      mload\n        /* \"#utility.yul\":1997:2060   */\n      tag_124\n        /* \"#utility.yul\":2054:2058   */\n      0x00\n        /* \"#utility.yul\":2049:2052   */\n      dup6\n        /* \"#utility.yul\":2045:2059   */\n      add\n        /* \"#utility.yul\":2031:2043   */\n      dup3\n        /* \"#utility.yul\":1997:2060   */\n      tag_84\n      jump\t// in\n    tag_124:\n        /* \"#utility.yul\":1902:2070   */\n      pop\n        /* \"#utility.yul\":2160:2164   */\n      0x20\n        /* \"#utility.yul\":2153:2158   */\n      dup3\n        /* \"#utility.yul\":2149:2165   */\n      add\n        /* \"#utility.yul\":2143:2166   */\n      mload\n        /* \"#utility.yul\":2179:2242   */\n      tag_125\n        /* \"#utility.yul\":2236:2240   */\n      0x20\n        /* \"#utility.yul\":2231:2234   */\n      dup6\n        /* \"#utility.yul\":2227:2241   */\n      add\n        /* \"#utility.yul\":2213:2225   */\n      dup3\n        /* \"#utility.yul\":2179:2242   */\n      tag_87\n      jump\t// in\n    tag_125:\n        /* \"#utility.yul\":2080:2252   */\n      pop\n        /* \"#utility.yul\":2339:2343   */\n      0x40\n        /* \"#utility.yul\":2332:2337   */\n      dup3\n        /* \"#utility.yul\":2328:2344   */\n      add\n        /* \"#utility.yul\":2322:2345   */\n      mload\n        /* \"#utility.yul\":2358:2421   */\n      tag_126\n        /* \"#utility.yul\":2415:2419   */\n      0x40\n        /* \"#utility.yul\":2410:2413   */\n      dup6\n        /* \"#utility.yul\":2406:2420   */\n      add\n        /* \"#utility.yul\":2392:2404   */\n      dup3\n        /* \"#utility.yul\":2358:2421   */\n      tag_84\n      jump\t// in\n    tag_126:\n        /* \"#utility.yul\":2262:2431   */\n      pop\n        /* \"#utility.yul\":2516:2520   */\n      0x60\n        /* \"#utility.yul\":2509:2514   */\n      dup3\n        /* \"#utility.yul\":2505:2521   */\n      add\n        /* \"#utility.yul\":2499:2522   */\n      mload\n        /* \"#utility.yul\":2535:2598   */\n      tag_127\n        /* \"#utility.yul\":2592:2596   */\n      0x60\n        /* \"#utility.yul\":2587:2590   */\n      dup6\n        /* \"#utility.yul\":2583:2597   */\n      add\n        /* \"#utility.yul\":2569:2581   */\n      dup3\n        /* \"#utility.yul\":2535:2598   */\n      tag_84\n      jump\t// in\n    tag_127:\n        /* \"#utility.yul\":2441:2608   */\n      pop\n        /* \"#utility.yul\":2700:2704   */\n      0x80\n        /* \"#utility.yul\":2693:2698   */\n      dup3\n        /* \"#utility.yul\":2689:2705   */\n      add\n        /* \"#utility.yul\":2683:2706   */\n      mload\n        /* \"#utility.yul\":2719:2782   */\n      tag_128\n        /* \"#utility.yul\":2776:2780   */\n      0x80\n        /* \"#utility.yul\":2771:2774   */\n      dup6\n        /* \"#utility.yul\":2767:2781   */\n      add\n        /* \"#utility.yul\":2753:2765   */\n      dup3\n        /* \"#utility.yul\":2719:2782   */\n      tag_84\n      jump\t// in\n    tag_128:\n        /* \"#utility.yul\":2618:2792   */\n      pop\n        /* \"#utility.yul\":2884:2888   */\n      0xa0\n        /* \"#utility.yul\":2877:2882   */\n      dup3\n        /* \"#utility.yul\":2873:2889   */\n      add\n        /* \"#utility.yul\":2867:2890   */\n      mload\n        /* \"#utility.yul\":2903:2966   */\n      tag_129\n        /* \"#utility.yul\":2960:2964   */\n      0xa0\n        /* \"#utility.yul\":2955:2958   */\n      dup6\n        /* \"#utility.yul\":2951:2965   */\n      add\n        /* \"#utility.yul\":2937:2949   */\n      dup3\n        /* \"#utility.yul\":2903:2966   */\n      tag_84\n      jump\t// in\n    tag_129:\n        /* \"#utility.yul\":2802:2976   */\n      pop\n        /* \"#utility.yul\":3062:3066   */\n      0xc0\n        /* \"#utility.yul\":3055:3060   */\n      dup3\n        /* \"#utility.yul\":3051:3067   */\n      add\n        /* \"#utility.yul\":3045:3068   */\n      mload\n        /* \"#utility.yul\":3081:3138   */\n      tag_130\n        /* \"#utility.yul\":3132:3136   */\n      0xc0\n        /* \"#utility.yul\":3127:3130   */\n      dup6\n        /* \"#utility.yul\":3123:3137   */\n      add\n        /* \"#utility.yul\":3109:3121   */\n      dup3\n        /* \"#utility.yul\":3081:3138   */\n      tag_89\n      jump\t// in\n    tag_130:\n        /* \"#utility.yul\":2986:3148   */\n      pop\n        /* \"#utility.yul\":1856:3155   */\n      pop\n        /* \"#utility.yul\":1746:3155   */\n      pop\n      pop\n      jump\t// out\n        /* \"#utility.yul\":3161:3472   */\n    tag_13:\n        /* \"#utility.yul\":3298:3302   */\n      0x00\n        /* \"#utility.yul\":3336:3339   */\n      0xe0\n        /* \"#utility.yul\":3325:3334   */\n      dup3\n        /* \"#utility.yul\":3321:3340   */\n      add\n        /* \"#utility.yul\":3313:3340   */\n      swap1\n      pop\n        /* \"#utility.yul\":3350:3465   */\n      tag_132\n        /* \"#utility.yul\":3462:3463   */\n      0x00\n        /* \"#utility.yul\":3451:3460   */\n      dup4\n        /* \"#utility.yul\":3447:3464   */\n      add\n        /* \"#utility.yul\":3438:3444   */\n      dup5\n        /* \"#utility.yul\":3350:3465   */\n      tag_90\n      jump\t// in\n    tag_132:\n        /* \"#utility.yul\":3161:3472   */\n      swap3\n      swap2\n      pop\n      pop\n      jump\t// out\n        /* \"#utility.yul\":3478:4243   */\n    tag_20:\n        /* \"#utility.yul\":3564:3570   */\n      0x00\n        /* \"#utility.yul\":3572:3578   */\n      dup1\n        /* \"#utility.yul\":3580:3586   */\n      0x00\n        /* \"#utility.yul\":3588:3594   */\n      dup1\n        /* \"#utility.yul\":3637:3640   */\n      0x80\n        /* \"#utility.yul\":3625:3634   */\n      dup6\n        /* \"#utility.yul\":3616:3623   */\n      dup8\n        /* \"#utility.yul\":3612:3635   */\n      sub\n        /* \"#utility.yul\":3608:3641   */\n      slt\n        /* \"#utility.yul\":3605:3725   */\n      iszero\n      tag_134\n      jumpi\n        /* \"#utility.yul\":3644:3723   */\n      tag_135\n      tag_79\n      jump\t// in\n    tag_135:\n        /* \"#utility.yul\":3605:3725   */\n    tag_134:\n        /* \"#utility.yul\":3764:3765   */\n      0x00\n        /* \"#utility.yul\":3789:3842   */\n      tag_136\n        /* \"#utility.yul\":3834:3841   */\n      dup8\n        /* \"#utility.yul\":3825:3831   */\n      dup3\n        /* \"#utility.yul\":3814:3823   */\n      dup9\n        /* \"#utility.yul\":3810:3832   */\n      add\n        /* \"#utility.yul\":3789:3842   */\n      tag_83\n      jump\t// in\n    tag_136:\n        /* \"#utility.yul\":3779:3842   */\n      swap5\n      pop\n        /* \"#utility.yul\":3735:3852   */\n      pop\n        /* \"#utility.yul\":3891:3893   */\n      0x20\n        /* \"#utility.yul\":3917:3970   */\n      tag_137\n        /* \"#utility.yul\":3962:3969   */\n      dup8\n        /* \"#utility.yul\":3953:3959   */\n      dup3\n        /* \"#utility.yul\":3942:3951   */\n      dup9\n        /* \"#utility.yul\":3938:3960   */\n      add\n        /* \"#utility.yul\":3917:3970   */\n      tag_83\n      jump\t// in\n    tag_137:\n        /* \"#utility.yul\":3907:3970   */\n      swap4\n      pop\n        /* \"#utility.yul\":3862:3980   */\n      pop\n        /* \"#utility.yul\":4019:4021   */\n      0x40\n        /* \"#utility.yul\":4045:4098   */\n      tag_138\n        /* \"#utility.yul\":4090:4097   */\n      dup8\n        /* \"#utility.yul\":4081:4087   */\n      dup3\n        /* \"#utility.yul\":4070:4079   */\n      dup9\n        /* \"#utility.yul\":4066:4088   */\n      add\n        /* \"#utility.yul\":4045:4098   */\n      tag_83\n      jump\t// in\n    tag_138:\n        /* \"#utility.yul\":4035:4098   */\n      swap3\n      pop\n        /* \"#utility.yul\":3990:4108   */\n      pop\n        /* \"#utility.yul\":4147:4149   */\n      0x60\n        /* \"#utility.yul\":4173:4226   */\n      tag_139\n        /* \"#utility.yul\":4218:4225   */\n      dup8\n        /* \"#utility.yul\":4209:4215   */\n      dup3\n        /* \"#utility.yul\":4198:4207   */\n      dup9\n        /* \"#utility.yul\":4194:4216   */\n      add\n        /* \"#utility.yul\":4173:4226   */\n      tag_83\n      jump\t// in\n    tag_139:\n        /* \"#utility.yul\":4163:4226   */\n      swap2\n      pop\n        /* \"#utility.yul\":4118:4236   */\n      pop\n        /* \"#utility.yul\":3478:4243   */\n      swap3\n      swap6\n      swap2\n      swap5\n      pop\n      swap3\n      pop\n      jump\t// out\n        /* \"#utility.yul\":4249:4358   */\n    tag_91:\n        /* \"#utility.yul\":4330:4351   */\n      tag_141\n        /* \"#utility.yul\":4345:4350   */\n      dup2\n        /* \"#utility.yul\":4330:4351   */\n      tag_88\n      jump\t// in\n    tag_141:\n        /* \"#utility.yul\":4325:4328   */\n      dup3\n        /* \"#utility.yul\":4318:4352   */\n      mstore\n        /* \"#utility.yul\":4249:4358   */\n      pop\n      pop\n      jump\t// out\n        /* \"#utility.yul\":4364:4574   */\n    tag_27:\n        /* \"#utility.yul\":4451:4455   */\n      0x00\n        /* \"#utility.yul\":4489:4491   */\n      0x20\n        /* \"#utility.yul\":4478:4487   */\n      dup3\n        /* \"#utility.yul\":4474:4492   */\n      add\n        /* \"#utility.yul\":4466:4492   */\n      swap1\n      pop\n        /* \"#utility.yul\":4502:4567   */\n      tag_143\n        /* \"#utility.yul\":4564:4565   */\n      0x00\n        /* \"#utility.yul\":4553:4562   */\n      dup4\n        /* \"#utility.yul\":4549:4566   */\n      add\n        /* \"#utility.yul\":4540:4546   */\n      dup5\n        /* \"#utility.yul\":4502:4567   */\n      tag_91\n      jump\t// in\n    tag_143:\n        /* \"#utility.yul\":4364:4574   */\n      swap3\n      swap2\n      pop\n      pop\n      jump\t// out\n        /* \"#utility.yul\":4580:5054   */\n    tag_31:\n        /* \"#utility.yul\":4648:4654   */\n      0x00\n        /* \"#utility.yul\":4656:4662   */\n      dup1\n        /* \"#utility.yul\":4705:4707   */\n      0x40\n        /* \"#utility.yul\":4693:4702   */\n      dup4\n        /* \"#utility.yul\":4684:4691   */\n      dup6\n        /* \"#utility.yul\":4680:4703   */\n      sub\n        /* \"#utility.yul\":4676:4708   */\n      slt\n        /* \"#utility.yul\":4673:4792   */\n      iszero\n      tag_145\n      jumpi\n        /* \"#utility.yul\":4711:4790   */\n      tag_146\n      tag_79\n      jump\t// in\n    tag_146:\n        /* \"#utility.yul\":4673:4792   */\n    tag_145:\n        /* \"#utility.yul\":4831:4832   */\n      0x00\n        /* \"#utility.yul\":4856:4909   */\n      tag_147\n        /* \"#utility.yul\":4901:4908   */\n      dup6\n        /* \"#utility.yul\":4892:4898   */\n      dup3\n        /* \"#utility.yul\":4881:4890   */\n      dup7\n        /* \"#utility.yul\":4877:4899   */\n      add\n        /* \"#utility.yul\":4856:4909   */\n      tag_83\n      jump\t// in\n    tag_147:\n        /* \"#utility.yul\":4846:4909   */\n      swap3\n      pop\n        /* \"#utility.yul\":4802:4919   */\n      pop\n        /* \"#utility.yul\":4958:4960   */\n      0x20\n        /* \"#utility.yul\":4984:5037   */\n      tag_148\n        /* \"#utility.yul\":5029:5036   */\n      dup6\n        /* \"#utility.yul\":5020:5026   */\n      dup3\n        /* \"#utility.yul\":5009:5018   */\n      dup7\n        /* \"#utility.yul\":5005:5027   */\n      add\n        /* \"#utility.yul\":4984:5037   */\n      tag_83\n      jump\t// in\n    tag_148:\n        /* \"#utility.yul\":4974:5037   */\n      swap2\n      pop\n        /* \"#utility.yul\":4929:5047   */\n      pop\n        /* \"#utility.yul\":4580:5054   */\n      swap3\n      pop\n      swap3\n      swap1\n      pop\n      jump\t// out\n        /* \"#utility.yul\":5060:5178   */\n    tag_92:\n        /* \"#utility.yul\":5147:5171   */\n      tag_150\n        /* \"#utility.yul\":5165:5170   */\n      dup2\n        /* \"#utility.yul\":5147:5171   */\n      tag_81\n      jump\t// in\n    tag_150:\n        /* \"#utility.yul\":5142:5145   */\n      dup3\n        /* \"#utility.yul\":5135:5172   */\n      mstore\n        /* \"#utility.yul\":5060:5178   */\n      pop\n      pop\n      jump\t// out\n        /* \"#utility.yul\":5184:5406   */\n    tag_39:\n        /* \"#utility.yul\":5277:5281   */\n      0x00\n        /* \"#utility.yul\":5315:5317   */\n      0x20\n        /* \"#utility.yul\":5304:5313   */\n      dup3\n        /* \"#utility.yul\":5300:5318   */\n      add\n        /* \"#utility.yul\":5292:5318   */\n      swap1\n      pop\n        /* \"#utility.yul\":5328:5399   */\n      tag_152\n        /* \"#utility.yul\":5396:5397   */\n      0x00\n        /* \"#utility.yul\":5385:5394   */\n      dup4\n        /* \"#utility.yul\":5381:5398   */\n      add\n        /* \"#utility.yul\":5372:5378   */\n      dup5\n        /* \"#utility.yul\":5328:5399   */\n      tag_92\n      jump\t// in\n    tag_152:\n        /* \"#utility.yul\":5184:5406   */\n      swap3\n      swap2\n      pop\n      pop\n      jump\t// out\n        /* \"#utility.yul\":5412:5581   */\n    tag_93:\n        /* \"#utility.yul\":5496:5507   */\n      0x00\n        /* \"#utility.yul\":5530:5536   */\n      dup3\n        /* \"#utility.yul\":5525:5528   */\n      dup3\n        /* \"#utility.yul\":5518:5537   */\n      mstore\n        /* \"#utility.yul\":5570:5574   */\n      0x20\n        /* \"#utility.yul\":5565:5568   */\n      dup3\n        /* \"#utility.yul\":5561:5575   */\n      add\n        /* \"#utility.yul\":5546:5575   */\n      swap1\n      pop\n        /* \"#utility.yul\":5412:5581   */\n      swap3\n      swap2\n      pop\n      pop\n      jump\t// out\n        /* \"#utility.yul\":5587:5763   */\n    tag_94:\n        /* \"#utility.yul\":5727:5755   */\n      0x506f6c69637920697320616c726561647920696e616374697665000000000000\n        /* \"#utility.yul\":5723:5724   */\n      0x00\n        /* \"#utility.yul\":5715:5721   */\n      dup3\n        /* \"#utility.yul\":5711:5725   */\n      add\n        /* \"#utility.yul\":5704:5756   */\n      mstore\n        /* \"#utility.yul\":5587:5763   */\n      pop\n      jump\t// out\n        /* \"#utility.yul\":5769:6135   */\n    tag_95:\n        /* \"#utility.yul\":5911:5914   */\n      0x00\n        /* \"#utility.yul\":5932:5999   */\n      tag_156\n        /* \"#utility.yul\":5996:5998   */\n      0x1a\n        /* \"#utility.yul\":5991:5994   */\n      dup4\n        /* \"#utility.yul\":5932:5999   */\n      tag_93\n      jump\t// in\n    tag_156:\n        /* \"#utility.yul\":5925:5999   */\n      swap2\n      pop\n        /* \"#utility.yul\":6008:6101   */\n      tag_157\n        /* \"#utility.yul\":6097:6100   */\n      dup3\n        /* \"#utility.yul\":6008:6101   */\n      tag_94\n      jump\t// in\n    tag_157:\n        /* \"#utility.yul\":6126:6128   */\n      0x20\n        /* \"#utility.yul\":6121:6124   */\n      dup3\n        /* \"#utility.yul\":6117:6129   */\n      add\n        /* \"#utility.yul\":6110:6129   */\n      swap1\n      pop\n        /* \"#utility.yul\":5769:6135   */\n      swap2\n      swap1\n      pop\n      jump\t// out\n        /* \"#utility.yul\":6141:6560   */\n    tag_43:\n        /* \"#utility.yul\":6307:6311   */\n      0x00\n        /* \"#utility.yul\":6345:6347   */\n      0x20\n        /* \"#utility.yul\":6334:6343   */\n      dup3\n        /* \"#utility.yul\":6330:6348   */\n      add\n        /* \"#utility.yul\":6322:6348   */\n      swap1\n      pop\n        /* \"#utility.yul\":6394:6403   */\n      dup2\n        /* \"#utility.yul\":6388:6392   */\n      dup2\n        /* \"#utility.yul\":6384:6404   */\n      sub\n        /* \"#utility.yul\":6380:6381   */\n      0x00\n        /* \"#utility.yul\":6369:6378   */\n      dup4\n        /* \"#utility.yul\":6365:6382   */\n      add\n        /* \"#utility.yul\":6358:6405   */\n      mstore\n        /* \"#utility.yul\":6422:6553   */\n      tag_159\n        /* \"#utility.yul\":6548:6552   */\n      dup2\n        /* \"#utility.yul\":6422:6553   */\n      tag_95\n      jump\t// in\n    tag_159:\n        /* \"#utility.yul\":6414:6553   */\n      swap1\n      pop\n        /* \"#utility.yul\":6141:6560   */\n      swap2\n      swap1\n      pop\n      jump\t// out\n        /* \"#utility.yul\":6566:6746   */\n    tag_96:\n        /* \"#utility.yul\":6614:6691   */\n      0x4e487b7100000000000000000000000000000000000000000000000000000000\n        /* \"#utility.yul\":6611:6612   */\n      0x00\n        /* \"#utility.yul\":6604:6692   */\n      mstore\n        /* \"#utility.yul\":6711:6715   */\n      0x11\n        /* \"#utility.yul\":6708:6709   */\n      0x04\n        /* \"#utility.yul\":6701:6716   */\n      mstore\n        /* \"#utility.yul\":6735:6739   */\n      0x24\n        /* \"#utility.yul\":6732:6733   */\n      0x00\n        /* \"#utility.yul\":6725:6740   */\n      revert\n        /* \"#utility.yul\":6752:7162   */\n    tag_46:\n        /* \"#utility.yul\":6792:6799   */\n      0x00\n        /* \"#utility.yul\":6815:6835   */\n      tag_162\n        /* \"#utility.yul\":6833:6834   */\n      dup3\n        /* \"#utility.yul\":6815:6835   */\n      tag_81\n      jump\t// in\n    tag_162:\n        /* \"#utility.yul\":6810:6835   */\n      swap2\n      pop\n        /* \"#utility.yul\":6849:6869   */\n      tag_163\n        /* \"#utility.yul\":6867:6868   */\n      dup4\n        /* \"#utility.yul\":6849:6869   */\n      tag_81\n      jump\t// in\n    tag_163:\n        /* \"#utility.yul\":6844:6869   */\n      swap3\n      pop\n        /* \"#utility.yul\":6904:6905   */\n      dup3\n        /* \"#utility.yul\":6901:6902   */\n      dup3\n        /* \"#utility.yul\":6897:6906   */\n      mul\n        /* \"#utility.yul\":6926:6956   */\n      tag_164\n        /* \"#utility.yul\":6944:6955   */\n      dup2\n        /* \"#utility.yul\":6926:6956   */\n      tag_81\n      jump\t// in\n    tag_164:\n        /* \"#utility.yul\":6915:6956   */\n      swap2\n      pop\n        /* \"#utility.yul\":7105:7106   */\n      dup3\n        /* \"#utility.yul\":7096:7103   */\n      dup3\n        /* \"#utility.yul\":7092:7107   */\n      div\n        /* \"#utility.yul\":7089:7090   */\n      dup5\n        /* \"#utility.yul\":7086:7108   */\n      eq\n        /* \"#utility.yul\":7066:7067   */\n      dup4\n        /* \"#utility.yul\":7059:7068   */\n      iszero\n        /* \"#utility.yul\":7039:7122   */\n      or\n        /* \"#utility.yul\":7016:7155   */\n      tag_165\n      jumpi\n        /* \"#utility.yul\":7135:7153   */\n      tag_166\n      tag_96\n      jump\t// in\n    tag_166:\n        /* \"#utility.yul\":7016:7155   */\n    tag_165:\n        /* \"#utility.yul\":6800:7162   */\n      pop\n        /* \"#utility.yul\":6752:7162   */\n      swap3\n      swap2\n      pop\n      pop\n      jump\t// out\n        /* \"#utility.yul\":7168:7342   */\n    tag_97:\n        /* \"#utility.yul\":7308:7334   */\n      0x496e636f7272656374207072656d69756d20616d6f756e740000000000000000\n        /* \"#utility.yul\":7304:7305   */\n      0x00\n        /* \"#utility.yul\":7296:7302   */\n      dup3\n        /* \"#utility.yul\":7292:7306   */\n      add\n        /* \"#utility.yul\":7285:7335   */\n      mstore\n        /* \"#utility.yul\":7168:7342   */\n      pop\n      jump\t// out\n        /* \"#utility.yul\":7348:7714   */\n    tag_98:\n        /* \"#utility.yul\":7490:7493   */\n      0x00\n        /* \"#utility.yul\":7511:7578   */\n      tag_169\n        /* \"#utility.yul\":7575:7577   */\n      0x18\n        /* \"#utility.yul\":7570:7573   */\n      dup4\n        /* \"#utility.yul\":7511:7578   */\n      tag_93\n      jump\t// in\n    tag_169:\n        /* \"#utility.yul\":7504:7578   */\n      swap2\n      pop\n        /* \"#utility.yul\":7587:7680   */\n      tag_170\n        /* \"#utility.yul\":7676:7679   */\n      dup3\n        /* \"#utility.yul\":7587:7680   */\n      tag_97\n      jump\t// in\n    tag_170:\n        /* \"#utility.yul\":7705:7707   */\n      0x20\n        /* \"#utility.yul\":7700:7703   */\n      dup3\n        /* \"#utility.yul\":7696:7708   */\n      add\n        /* \"#utility.yul\":7689:7708   */\n      swap1\n      pop\n        /* \"#utility.yul\":7348:7714   */\n      swap2\n      swap1\n      pop\n      jump\t// out\n        /* \"#utility.yul\":7720:8139   */\n    tag_50:\n        /* \"#utility.yul\":7886:7890   */\n      0x00\n        /* \"#utility.yul\":7924:7926   */\n      0x20\n        /* \"#utility.yul\":7913:7922   */\n      dup3\n        /* \"#utility.yul\":7909:7927   */\n      add\n        /* \"#utility.yul\":7901:7927   */\n      swap1\n      pop\n        /* \"#utility.yul\":7973:7982   */\n      dup2\n        /* \"#utility.yul\":7967:7971   */\n      dup2\n        /* \"#utility.yul\":7963:7983   */\n      sub\n        /* \"#utility.yul\":7959:7960   */\n      0x00\n        /* \"#utility.yul\":7948:7957   */\n      dup4\n        /* \"#utility.yul\":7944:7961   */\n      add\n        /* \"#utility.yul\":7937:7984   */\n      mstore\n        /* \"#utility.yul\":8001:8132   */\n      tag_172\n        /* \"#utility.yul\":8127:8131   */\n      dup2\n        /* \"#utility.yul\":8001:8132   */\n      tag_98\n      jump\t// in\n    tag_172:\n        /* \"#utility.yul\":7993:8132   */\n      swap1\n      pop\n        /* \"#utility.yul\":7720:8139   */\n      swap2\n      swap1\n      pop\n      jump\t// out\n        /* \"#utility.yul\":8145:8378   */\n    tag_52:\n        /* \"#utility.yul\":8184:8187   */\n      0x00\n        /* \"#utility.yul\":8207:8231   */\n      tag_174\n        /* \"#utility.yul\":8225:8230   */\n      dup3\n        /* \"#utility.yul\":8207:8231   */\n      tag_81\n      jump\t// in\n    tag_174:\n        /* \"#utility.yul\":8198:8231   */\n      swap2\n      pop\n        /* \"#utility.yul\":8253:8319   */\n      0xffffffffffffffffffffffffffffffffffffffffffffffffffffffffffffffff\n        /* \"#utility.yul\":8246:8251   */\n      dup3\n        /* \"#utility.yul\":8243:8320   */\n      sub\n        /* \"#utility.yul\":8240:8343   */\n      tag_175\n      jumpi\n        /* \"#utility.yul\":8323:8341   */\n      tag_176\n      tag_96\n      jump\t// in\n    tag_176:\n        /* \"#utility.yul\":8240:8343   */\n    tag_175:\n        /* \"#utility.yul\":8370:8371   */\n      0x01\n        /* \"#utility.yul\":8363:8368   */\n      dup3\n        /* \"#utility.yul\":8359:8372   */\n      add\n        /* \"#utility.yul\":8352:8372   */\n      swap1\n      pop\n        /* \"#utility.yul\":8145:8378   */\n      swap2\n      swap1\n      pop\n      jump\t// out\n        /* \"#utility.yul\":8384:8575   */\n    tag_54:\n        /* \"#utility.yul\":8424:8427   */\n      0x00\n        /* \"#utility.yul\":8443:8463   */\n      tag_178\n        /* \"#utility.yul\":8461:8462   */\n      dup3\n        /* \"#utility.yul\":8443:8463   */\n      tag_81\n      jump\t// in\n    tag_178:\n        /* \"#utility.yul\":8438:8463   */\n      swap2\n      pop\n        /* \"#utility.yul\":8477:8497   */\n      tag_179\n        /* \"#utility.yul\":8495:8496   */\n      dup4\n        /* \"#utility.yul\":8477:8497   */\n      tag_81\n      jump\t// in\n    tag_179:\n        /* \"#utility.yul\":8472:8497   */\n      swap3\n      pop\n        /* \"#utility.yul\":8520:8521   */\n      dup3\n        /* \"#utility.yul\":8517:8518   */\n      dup3\n        /* \"#utility.yul\":8513:8522   */\n      add\n        /* \"#utility.yul\":8506:8522   */\n      swap1\n      pop\n        /* \"#utility.yul\":8541:8544   */\n      dup1\n        /* \"#utility.yul\":8538:8539   */\n      dup3\n        /* \"#utility.yul\":8535:8545   */\n      gt\n        /* \"#utility.yul\":8532:8568   */\n      iszero\n      tag_180\n      jumpi\n        /* \"#utility.yul\":8548:8566   */\n      tag_181\n      tag_96\n      jump\t// in\n    tag_181:\n        /* \"#utility.yul\":8532:8568   */\n    tag_180:\n        /* \"#utility.yul\":8384:8575   */\n      swap3\n      swap2\n      pop\n      pop\n      jump\t// out\n        /* \"#utility.yul\":8581:9023   */\n    tag_57:\n        /* \"#utility.yul\":8730:8734   */\n      0x00\n        /* \"#utility.yul\":8768:8770   */\n      0x60\n        /* \"#utility.yul\":8757:8766   */\n      dup3\n        /* \"#utility.yul\":8753:8771   */\n      add\n        /* \"#utility.yul\":8745:8771   */\n      swap1\n      pop\n        /* \"#utility.yul\":8781:8852   */\n      tag_183\n        /* \"#utility.yul\":8849:8850   */\n      0x00\n        /* \"#utility.yul\":8838:8847   */\n      dup4\n        /* \"#utility.yul\":8834:8851   */\n      add\n        /* \"#utility.yul\":8825:8831   */\n      dup7\n        /* \"#utility.yul\":8781:8852   */\n      tag_92\n      jump\t// in\n    tag_183:\n        /* \"#utility.yul\":8862:8934   */\n      tag_184\n        /* \"#utility.yul\":8930:8932   */\n      0x20\n        /* \"#utility.yul\":8919:8928   */\n      dup4\n        /* \"#utility.yul\":8915:8933   */\n      add\n        /* \"#utility.yul\":8906:8912   */\n      dup6\n        /* \"#utility.yul\":8862:8934   */\n      tag_92\n      jump\t// in\n    tag_184:\n        /* \"#utility.yul\":8944:9016   */\n      tag_185\n        /* \"#utility.yul\":9012:9014   */\n      0x40\n        /* \"#utility.yul\":9001:9010   */\n      dup4\n        /* \"#utility.yul\":8997:9015   */\n      add\n        /* \"#utility.yul\":8988:8994   */\n      dup5\n        /* \"#utility.yul\":8944:9016   */\n      tag_92\n      jump\t// in\n    tag_185:\n        /* \"#utility.yul\":8581:9023   */\n      swap5\n      swap4\n      pop\n      pop\n      pop\n      pop\n      jump\t// out\n        /* \"#utility.yul\":9029:9361   */\n    tag_72:\n        /* \"#utility.yul\":9150:9154   */\n      0x00\n        /* \"#utility.yul\":9188:9190   */\n      0x40\n        /* \"#utility.yul\":9177:9186   */\n      dup3\n        /* \"#utility.yul\":9173:9191   */\n      add\n        /* \"#utility.yul\":9165:9191   */\n      swap1\n      pop\n        /* \"#utility.yul\":9201:9272   */\n      tag_187\n        /* \"#utility.yul\":9269:9270   */\n      0x00\n        /* \"#utility.yul\":9258:9267   */\n      dup4\n        /* \"#utility.yul\":9254:9271   */\n      add\n        /* \"#utility.yul\":9245:9251   */\n      dup6\n        /* \"#utility.yul\":9201:9272   */\n      tag_92\n      jump\t// in\n    tag_187:\n        /* \"#utility.yul\":9282:9354   */\n      tag_188\n        /* \"#utility.yul\":9350:9352   */\n      0x20\n        /* \"#utility.yul\":9339:9348   */\n      dup4\n        /* \"#utility.yul\":9335:9353   */\n      add\n        /* \"#utility.yul\":9326:9332   */\n      dup5\n        /* \"#utility.yul\":9282:9354   */\n      tag_92\n      jump\t// in\n    tag_188:\n        /* \"#utility.yul\":9029:9361   */\n      swap4\n      swap3\n      pop\n      pop\n      pop\n      jump\t// out\n        /* \"#utility.yul\":9367:9561   */\n    tag_74:\n        /* \"#utility.yul\":9407:9411   */\n      0x00\n        /* \"#utility.yul\":9427:9447   */\n      tag_190\n        /* \"#utility.yul\":9445:9446   */\n      dup3\n        /* \"#utility.yul\":9427:9447   */\n      tag_81\n      jump\t// in\n    tag_190:\n        /* \"#utility.yul\":9422:9447   */\n      swap2\n      pop\n        /* \"#utility.yul\":9461:9481   */\n      tag_191\n        /* \"#utility.yul\":9479:9480   */\n      dup4\n        /* \"#utility.yul\":9461:9481   */\n      tag_81\n      jump\t// in\n    tag_191:\n        /* \"#utility.yul\":9456:9481   */\n      swap3\n      pop\n        /* \"#utility.yul\":9505:9506   */\n      dup3\n        /* \"#utility.yul\":9502:9503   */\n      dup3\n        /* \"#utility.yul\":9498:9507   */\n      sub\n        /* \"#utility.yul\":9490:9507   */\n      swap1\n      pop\n        /* \"#utility.yul\":9529:9530   */\n      dup2\n        /* \"#utility.yul\":9523:9527   */\n      dup2\n        /* \"#utility.yul\":9520:9531   */\n      gt\n        /* \"#utility.yul\":9517:9554   */\n      iszero\n      tag_192\n      jumpi\n        /* \"#utility.yul\":9534:9552   */\n      tag_193\n      tag_96\n      jump\t// in\n    tag_193:\n        /* \"#utility.yul\":9517:9554   */\n    tag_192:\n        /* \"#utility.yul\":9367:9561   */\n      swap3\n      swap2\n      pop\n      pop\n      jump\t// out\n\n    auxdata: 0xa2646970667358221220a0a2bfc7aa3c69096ba5ff0a112639c7c9f7d61d1bf8d04941c08b89e5b6dd4f64736f6c634300081a0033\n}\n",
				"bytecode": {
					"linkReferences": {},
					"object": "6080604052348015600e575f80fd5b50610d738061001c5f395ff3fe608060405260043610610049575f3560e01c80632b07fce31461004d578063b20e8bcc14610089578063cbb70082146100b1578063cd127e79146100cd578063ce81967d14610109575b5f80fd5b348015610058575f80fd5b50610073600480360381019061006e91906108bc565b610131565b60405161008091906109db565b60405180910390f35b348015610094575f80fd5b506100af60048036038101906100aa91906108bc565b6101fc565b005b6100cb60048036038101906100c691906109f4565b610351565b005b3480156100d8575f80fd5b506100f360048036038101906100ee91906108bc565b610558565b6040516101009190610a67565b60405180910390f35b348015610114575f80fd5b5061012f600480360381019061012a9190610a80565b6105ac565b005b610139610837565b60015f8381526020019081526020015f206040518060e00160405290815f8201548152602001600182015f9054906101000a900473ffffffffffffffffffffffffffffffffffffffff1673ffffffffffffffffffffffffffffffffffffffff1673ffffffffffffffffffffffffffffffffffffffff16815260200160028201548152602001600382015481526020016004820154815260200160058201548152602001600682015f9054906101000a900460ff1615151515815250509050919050565b803373ffffffffffffffffffffffffffffffffffffffff1660015f8381526020019081526020015f206001015f9054906101000a900473ffffffffffffffffffffffffffffffffffffffff1673ffffffffffffffffffffffffffffffffffffffff16146102a057806040517fbc0ff02e0000000000000000000000000000000000000000000000000000000081526004016102979190610acd565b60405180910390fd5b5f60015f8481526020019081526020015f209050806006015f9054906101000a900460ff16610304576040517f08c379a00000000000000000000000000000000000000000000000000000000081526004016102fb90610b40565b60405180910390fd5b5f816006015f6101000a81548160ff021916908315150217905550827fbb1ae509b65d9486a686f3f1b0435353031b5607109dc80aa4d063887e10f3e860405160405180910390a2505050565b5f670de0b6b3a7640000846103669190610b8b565b90505f670de0b6b3a76400008461037d9190610b8b565b90508134146103c1576040517f08c379a00000000000000000000000000000000000000000000000000000000081526004016103b890610c16565b60405180910390fd5b5f808154809291906103d290610c34565b91905055506040518060e001604052805f5481526020013373ffffffffffffffffffffffffffffffffffffffff16815260200187815260200183815260200182815260200184426104239190610c7b565b81526020016001151581525060015f805481526020019081526020015f205f820151815f01556020820151816001015f6101000a81548173ffffffffffffffffffffffffffffffffffffffff021916908373ffffffffffffffffffffffffffffffffffffffff16021790555060408201518160020155606082015181600301556080820151816004015560a0820151816005015560c0820151816006015f6101000a81548160ff0219169083151502179055509050505f5460025f8881526020019081526020015f2081905550853373ffffffffffffffffffffffffffffffffffffffff165f547f2b622e2a83280e99185ddd0577a28a16ea5f0451aaef6f930bd809eb6c378cc4858588426105399190610c7b565b60405161054893929190610cae565b60405180910390a4505050505050565b5f8060025f8481526020019081526020015f205490505f60015f8381526020019081526020015f209050806006015f9054906101000a900460ff1680156105a3575080600501544211155b92505050919050565b813373ffffffffffffffffffffffffffffffffffffffff1660015f8381526020019081526020015f206001015f9054906101000a900473ffffffffffffffffffffffffffffffffffffffff1673ffffffffffffffffffffffffffffffffffffffff161461065057806040517fbc0ff02e0000000000000000000000000000000000000000000000000000000081526004016106479190610acd565b60405180910390fd5b8260015f8281526020019081526020015f206006015f9054906101000a900460ff166106b357806040517fa3068e7b0000000000000000000000000000000000000000000000000000000081526004016106aa9190610acd565b60405180910390fd5b5f60015f8681526020019081526020015f2090505f670de0b6b3a7640000856106dc9190610b8b565b9050816005015442111561072757856040517fb22aa54100000000000000000000000000000000000000000000000000000000815260040161071e9190610acd565b60405180910390fd5b8160040154811115610776578082600401546040517fbd2a227f00000000000000000000000000000000000000000000000000000000815260040161076d929190610ce3565b60405180910390fd5b80826004015f8282546107899190610d0a565b92505081905550816001015f9054906101000a900473ffffffffffffffffffffffffffffffffffffffff1673ffffffffffffffffffffffffffffffffffffffff166108fc8290811502906040515f60405180830381858888f193505050501580156107f6573d5f803e3d5ffd5b50857fc9d92d603dc7645c578a271dc9dec46855d3c0cdbdc48d00399a438907cfa1cb826040516108279190610acd565b60405180910390a2505050505050565b6040518060e001604052805f81526020015f73ffffffffffffffffffffffffffffffffffffffff1681526020015f81526020015f81526020015f81526020015f81526020015f151581525090565b5f80fd5b5f819050919050565b61089b81610889565b81146108a5575f80fd5b50565b5f813590506108b681610892565b92915050565b5f602082840312156108d1576108d0610885565b5b5f6108de848285016108a8565b91505092915050565b6108f081610889565b82525050565b5f73ffffffffffffffffffffffffffffffffffffffff82169050919050565b5f61091f826108f6565b9050919050565b61092f81610915565b82525050565b5f8115159050919050565b61094981610935565b82525050565b60e082015f8201516109635f8501826108e7565b5060208201516109766020850182610926565b50604082015161098960408501826108e7565b50606082015161099c60608501826108e7565b5060808201516109af60808501826108e7565b5060a08201516109c260a08501826108e7565b5060c08201516109d560c0850182610940565b50505050565b5f60e0820190506109ee5f83018461094f565b92915050565b5f805f8060808587031215610a0c57610a0b610885565b5b5f610a19878288016108a8565b9450506020610a2a878288016108a8565b9350506040610a3b878288016108a8565b9250506060610a4c878288016108a8565b91505092959194509250565b610a6181610935565b82525050565b5f602082019050610a7a5f830184610a58565b92915050565b5f8060408385031215610a9657610a95610885565b5b5f610aa3858286016108a8565b9250506020610ab4858286016108a8565b9150509250929050565b610ac781610889565b82525050565b5f602082019050610ae05f830184610abe565b92915050565b5f82825260208201905092915050565b7f506f6c69637920697320616c726561647920696e6163746976650000000000005f82015250565b5f610b2a601a83610ae6565b9150610b3582610af6565b602082019050919050565b5f6020820190508181035f830152610b5781610b1e565b9050919050565b7f4e487b71000000000000000000000000000000000000000000000000000000005f52601160045260245ffd5b5f610b9582610889565b9150610ba083610889565b9250828202610bae81610889565b91508282048414831517610bc557610bc4610b5e565b5b5092915050565b7f496e636f7272656374207072656d69756d20616d6f756e7400000000000000005f82015250565b5f610c00601883610ae6565b9150610c0b82610bcc565b602082019050919050565b5f6020820190508181035f830152610c2d81610bf4565b9050919050565b5f610c3e82610889565b91507fffffffffffffffffffffffffffffffffffffffffffffffffffffffffffffffff8203610c7057610c6f610b5e565b5b600182019050919050565b5f610c8582610889565b9150610c9083610889565b9250828201905080821115610ca857610ca7610b5e565b5b92915050565b5f606082019050610cc15f830186610abe565b610cce6020830185610abe565b610cdb6040830184610abe565b949350505050565b5f604082019050610cf65f830185610abe565b610d036020830184610abe565b9392505050565b5f610d1482610889565b9150610d1f83610889565b9250828203905081811115610d3757610d36610b5e565b5b9291505056fea2646970667358221220a0a2bfc7aa3c69096ba5ff0a112639c7c9f7d61d1bf8d04941c08b89e5b6dd4f64736f6c634300081a0033",
					"opcodes": "PUSH1 0x80 PUSH1 0x40 MSTORE CALLVALUE DUP1 ISZERO PUSH1 0xE JUMPI PUSH0 DUP1 REVERT JUMPDEST POP PUSH2 0xD73 DUP1 PUSH2 0x1C PUSH0 CODECOPY PUSH0 RETURN INVALID PUSH1 0x80 PUSH1 0x40 MSTORE PUSH1 0x4 CALLDATASIZE LT PUSH2 0x49 JUMPI PUSH0 CALLDATALOAD PUSH1 0xE0 SHR DUP1 PUSH4 0x2B07FCE3 EQ PUSH2 0x4D JUMPI DUP1 PUSH4 0xB20E8BCC EQ PUSH2 0x89 JUMPI DUP1 PUSH4 0xCBB70082 EQ PUSH2 0xB1 JUMPI DUP1 PUSH4 0xCD127E79 EQ PUSH2 0xCD JUMPI DUP1 PUSH4 0xCE81967D EQ PUSH2 0x109 JUMPI JUMPDEST PUSH0 DUP1 REVERT JUMPDEST CALLVALUE DUP1 ISZERO PUSH2 0x58 JUMPI PUSH0 DUP1 REVERT JUMPDEST POP PUSH2 0x73 PUSH1 0x4 DUP1 CALLDATASIZE SUB DUP2 ADD SWAP1 PUSH2 0x6E SWAP2 SWAP1 PUSH2 0x8BC JUMP JUMPDEST PUSH2 0x131 JUMP JUMPDEST PUSH1 0x40 MLOAD PUSH2 0x80 SWAP2 SWAP1 PUSH2 0x9DB JUMP JUMPDEST PUSH1 0x40 MLOAD DUP1 SWAP2 SUB SWAP1 RETURN JUMPDEST CALLVALUE DUP1 ISZERO PUSH2 0x94 JUMPI PUSH0 DUP1 REVERT JUMPDEST POP PUSH2 0xAF PUSH1 0x4 DUP1 CALLDATASIZE SUB DUP2 ADD SWAP1 PUSH2 0xAA SWAP2 SWAP1 PUSH2 0x8BC JUMP JUMPDEST PUSH2 0x1FC JUMP JUMPDEST STOP JUMPDEST PUSH2 0xCB PUSH1 0x4 DUP1 CALLDATASIZE SUB DUP2 ADD SWAP1 PUSH2 0xC6 SWAP2 SWAP1 PUSH2 0x9F4 JUMP JUMPDEST PUSH2 0x351 JUMP JUMPDEST STOP JUMPDEST CALLVALUE DUP1 ISZERO PUSH2 0xD8 JUMPI PUSH0 DUP1 REVERT JUMPDEST POP PUSH2 0xF3 PUSH1 0x4 DUP1 CALLDATASIZE SUB DUP2 ADD SWAP1 PUSH2 0xEE SWAP2 SWAP1 PUSH2 0x8BC JUMP JUMPDEST PUSH2 0x558 JUMP JUMPDEST PUSH1 0x40 MLOAD PUSH2 0x100 SWAP2 SWAP1 PUSH2 0xA67 JUMP JUMPDEST PUSH1 0x40 MLOAD DUP1 SWAP2 SUB SWAP1 RETURN JUMPDEST CALLVALUE DUP1 ISZERO PUSH2 0x114 JUMPI PUSH0 DUP1 REVERT JUMPDEST POP PUSH2 0x12F PUSH1 0x4 DUP1 CALLDATASIZE SUB DUP2 ADD SWAP1 PUSH2 0x12A SWAP2 SWAP1 PUSH2 0xA80 JUMP JUMPDEST PUSH2 0x5AC JUMP JUMPDEST STOP JUMPDEST PUSH2 0x139 PUSH2 0x837 JUMP JUMPDEST PUSH1 0x1 PUSH0 DUP4 DUP2 MSTORE PUSH1 0x20 ADD SWAP1 DUP2 MSTORE PUSH1 0x20 ADD PUSH0 KECCAK256 PUSH1 0x40 MLOAD DUP1 PUSH1 0xE0 ADD PUSH1 0x40 MSTORE SWAP1 DUP2 PUSH0 DUP3 ADD SLOAD DUP2 MSTORE PUSH1 0x20 ADD PUSH1 0x1 DUP3 ADD PUSH0 SWAP1 SLOAD SWAP1 PUSH2 0x100 EXP SWAP1 DIV PUSH20 0xFFFFFFFFFFFFFFFFFFFFFFFFFFFFFFFFFFFFFFFF AND PUSH20 0xFFFFFFFFFFFFFFFFFFFFFFFFFFFFFFFFFFFFFFFF AND PUSH20 0xFFFFFFFFFFFFFFFFFFFFFFFFFFFFFFFFFFFFFFFF AND DUP2 MSTORE PUSH1 0x20 ADD PUSH1 0x2 DUP3 ADD SLOAD DUP2 MSTORE PUSH1 0x20 ADD PUSH1 0x3 DUP3 ADD SLOAD DUP2 MSTORE PUSH1 0x20 ADD PUSH1 0x4 DUP3 ADD SLOAD DUP2 MSTORE PUSH1 0x20 ADD PUSH1 0x5 DUP3 ADD SLOAD DUP2 MSTORE PUSH1 0x20 ADD PUSH1 0x6 DUP3 ADD PUSH0 SWAP1 SLOAD SWAP1 PUSH2 0x100 EXP SWAP1 DIV PUSH1 0xFF AND ISZERO ISZERO ISZERO ISZERO DUP2 MSTORE POP POP SWAP1 POP SWAP2 SWAP1 POP JUMP JUMPDEST DUP1 CALLER PUSH20 0xFFFFFFFFFFFFFFFFFFFFFFFFFFFFFFFFFFFFFFFF AND PUSH1 0x1 PUSH0 DUP4 DUP2 MSTORE PUSH1 0x20 ADD SWAP1 DUP2 MSTORE PUSH1 0x20 ADD PUSH0 KECCAK256 PUSH1 0x1 ADD PUSH0 SWAP1 SLOAD SWAP1 PUSH2 0x100 EXP SWAP1 DIV PUSH20 0xFFFFFFFFFFFFFFFFFFFFFFFFFFFFFFFFFFFFFFFF AND PUSH20 0xFFFFFFFFFFFFFFFFFFFFFFFFFFFFFFFFFFFFFFFF AND EQ PUSH2 0x2A0 JUMPI DUP1 PUSH1 0x40 MLOAD PUSH32 0xBC0FF02E00000000000000000000000000000000000000000000000000000000 DUP2 MSTORE PUSH1 0x4 ADD PUSH2 0x297 SWAP2 SWAP1 PUSH2 0xACD JUMP JUMPDEST PUSH1 0x40 MLOAD DUP1 SWAP2 SUB SWAP1 REVERT JUMPDEST PUSH0 PUSH1 0x1 PUSH0 DUP5 DUP2 MSTORE PUSH1 0x20 ADD SWAP1 DUP2 MSTORE PUSH1 0x20 ADD PUSH0 KECCAK256 SWAP1 POP DUP1 PUSH1 0x6 ADD PUSH0 SWAP1 SLOAD SWAP1 PUSH2 0x100 EXP SWAP1 DIV PUSH1 0xFF AND PUSH2 0x304 JUMPI PUSH1 0x40 MLOAD PUSH32 0x8C379A000000000000000000000000000000000000000000000000000000000 DUP2 MSTORE PUSH1 0x4 ADD PUSH2 0x2FB SWAP1 PUSH2 0xB40 JUMP JUMPDEST PUSH1 0x40 MLOAD DUP1 SWAP2 SUB SWAP1 REVERT JUMPDEST PUSH0 DUP2 PUSH1 0x6 ADD PUSH0 PUSH2 0x100 EXP DUP2 SLOAD DUP2 PUSH1 0xFF MUL NOT AND SWAP1 DUP4 ISZERO ISZERO MUL OR SWAP1 SSTORE POP DUP3 PUSH32 0xBB1AE509B65D9486A686F3F1B0435353031B5607109DC80AA4D063887E10F3E8 PUSH1 0x40 MLOAD PUSH1 0x40 MLOAD DUP1 SWAP2 SUB SWAP1 LOG2 POP POP POP JUMP JUMPDEST PUSH0 PUSH8 0xDE0B6B3A7640000 DUP5 PUSH2 0x366 SWAP2 SWAP1 PUSH2 0xB8B JUMP JUMPDEST SWAP1 POP PUSH0 PUSH8 0xDE0B6B3A7640000 DUP5 PUSH2 0x37D SWAP2 SWAP1 PUSH2 0xB8B JUMP JUMPDEST SWAP1 POP DUP2 CALLVALUE EQ PUSH2 0x3C1 JUMPI PUSH1 0x40 MLOAD PUSH32 0x8C379A000000000000000000000000000000000000000000000000000000000 DUP2 MSTORE PUSH1 0x4 ADD PUSH2 0x3B8 SWAP1 PUSH2 0xC16 JUMP JUMPDEST PUSH1 0x40 MLOAD DUP1 SWAP2 SUB SWAP1 REVERT JUMPDEST PUSH0 DUP1 DUP2 SLOAD DUP1 SWAP3 SWAP2 SWAP1 PUSH2 0x3D2 SWAP1 PUSH2 0xC34 JUMP JUMPDEST SWAP2 SWAP1 POP SSTORE POP PUSH1 0x40 MLOAD DUP1 PUSH1 0xE0 ADD PUSH1 0x40 MSTORE DUP1 PUSH0 SLOAD DUP2 MSTORE PUSH1 0x20 ADD CALLER PUSH20 0xFFFFFFFFFFFFFFFFFFFFFFFFFFFFFFFFFFFFFFFF AND DUP2 MSTORE PUSH1 0x20 ADD DUP8 DUP2 MSTORE PUSH1 0x20 ADD DUP4 DUP2 MSTORE PUSH1 0x20 ADD DUP3 DUP2 MSTORE PUSH1 0x20 ADD DUP5 TIMESTAMP PUSH2 0x423 SWAP2 SWAP1 PUSH2 0xC7B JUMP JUMPDEST DUP2 MSTORE PUSH1 0x20 ADD PUSH1 0x1 ISZERO ISZERO DUP2 MSTORE POP PUSH1 0x1 PUSH0 DUP1 SLOAD DUP2 MSTORE PUSH1 0x20 ADD SWAP1 DUP2 MSTORE PUSH1 0x20 ADD PUSH0 KECCAK256 PUSH0 DUP3 ADD MLOAD DUP2 PUSH0 ADD SSTORE PUSH1 0x20 DUP3 ADD MLOAD DUP2 PUSH1 0x1 ADD PUSH0 PUSH2 0x100 EXP DUP2 SLOAD DUP2 PUSH20 0xFFFFFFFFFFFFFFFFFFFFFFFFFFFFFFFFFFFFFFFF MUL NOT AND SWAP1 DUP4 PUSH20 0xFFFFFFFFFFFFFFFFFFFFFFFFFFFFFFFFFFFFFFFF AND MUL OR SWAP1 SSTORE POP PUSH1 0x40 DUP3 ADD MLOAD DUP2 PUSH1 0x2 ADD SSTORE PUSH1 0x60 DUP3 ADD MLOAD DUP2 PUSH1 0x3 ADD SSTORE PUSH1 0x80 DUP3 ADD MLOAD DUP2 PUSH1 0x4 ADD SSTORE PUSH1 0xA0 DUP3 ADD MLOAD DUP2 PUSH1 0x5 ADD SSTORE PUSH1 0xC0 DUP3 ADD MLOAD DUP2 PUSH1 0x6 ADD PUSH0 PUSH2 0x100 EXP DUP2 SLOAD DUP2 PUSH1 0xFF MUL NOT AND SWAP1 DUP4 ISZERO ISZERO MUL OR SWAP1 SSTORE POP SWAP1 POP POP PUSH0 SLOAD PUSH1 0x2 PUSH0 DUP9 DUP2 MSTORE PUSH1 0x20 ADD SWAP1 DUP2 MSTORE PUSH1 0x20 ADD PUSH0 KECCAK256 DUP2 SWAP1 SSTORE POP DUP6 CALLER PUSH20 0xFFFFFFFFFFFFFFFFFFFFFFFFFFFFFFFFFFFFFFFF AND PUSH0 SLOAD PUSH32 0x2B622E2A83280E99185DDD0577A28A16EA5F0451AAEF6F930BD809EB6C378CC4 DUP6 DUP6 DUP9 TIMESTAMP PUSH2 0x539 SWAP2 SWAP1 PUSH2 0xC7B JUMP JUMPDEST PUSH1 0x40 MLOAD PUSH2 0x548 SWAP4 SWAP3 SWAP2 SWAP1 PUSH2 0xCAE JUMP JUMPDEST PUSH1 0x40 MLOAD DUP1 SWAP2 SUB SWAP1 LOG4 POP POP POP POP POP POP JUMP JUMPDEST PUSH0 DUP1 PUSH1 0x2 PUSH0 DUP5 DUP2 MSTORE PUSH1 0x20 ADD SWAP1 DUP2 MSTORE PUSH1 0x20 ADD PUSH0 KECCAK256 SLOAD SWAP1 POP PUSH0 PUSH1 0x1 PUSH0 DUP4 DUP2 MSTORE PUSH1 0x20 ADD SWAP1 DUP2 MSTORE PUSH1 0x20 ADD PUSH0 KECCAK256 SWAP1 POP DUP1 PUSH1 0x6 ADD PUSH0 SWAP1 SLOAD SWAP1 PUSH2 0x100 EXP SWAP1 DIV PUSH1 0xFF AND DUP1 ISZERO PUSH2 0x5A3 JUMPI POP DUP1 PUSH1 0x5 ADD SLOAD TIMESTAMP GT ISZERO JUMPDEST SWAP3 POP POP POP SWAP2 SWAP1 POP JUMP JUMPDEST DUP2 CALLER PUSH20 0xFFFFFFFFFFFFFFFFFFFFFFFFFFFFFFFFFFFFFFFF AND PUSH1 0x1 PUSH0 DUP4 DUP2 MSTORE PUSH1 0x20 ADD SWAP1 DUP2 MSTORE PUSH1 0x20 ADD PUSH0 KECCAK256 PUSH1 0x1 ADD PUSH0 SWAP1 SLOAD SWAP1 PUSH2 0x100 EXP SWAP1 DIV PUSH20 0xFFFFFFFFFFFFFFFFFFFFFFFFFFFFFFFFFFFFFFFF AND PUSH20 0xFFFFFFFFFFFFFFFFFFFFFFFFFFFFFFFFFFFFFFFF AND EQ PUSH2 0x650 JUMPI DUP1 PUSH1 0x40 MLOAD PUSH32 0xBC0FF02E00000000000000000000000000000000000000000000000000000000 DUP2 MSTORE PUSH1 0x4 ADD PUSH2 0x647 SWAP2 SWAP1 PUSH2 0xACD JUMP JUMPDEST PUSH1 0x40 MLOAD DUP1 SWAP2 SUB SWAP1 REVERT JUMPDEST DUP3 PUSH1 0x1 PUSH0 DUP3 DUP2 MSTORE PUSH1 0x20 ADD SWAP1 DUP2 MSTORE PUSH1 0x20 ADD PUSH0 KECCAK256 PUSH1 0x6 ADD PUSH0 SWAP1 SLOAD SWAP1 PUSH2 0x100 EXP SWAP1 DIV PUSH1 0xFF AND PUSH2 0x6B3 JUMPI DUP1 PUSH1 0x40 MLOAD PUSH32 0xA3068E7B00000000000000000000000000000000000000000000000000000000 DUP2 MSTORE PUSH1 0x4 ADD PUSH2 0x6AA SWAP2 SWAP1 PUSH2 0xACD JUMP JUMPDEST PUSH1 0x40 MLOAD DUP1 SWAP2 SUB SWAP1 REVERT JUMPDEST PUSH0 PUSH1 0x1 PUSH0 DUP7 DUP2 MSTORE PUSH1 0x20 ADD SWAP1 DUP2 MSTORE PUSH1 0x20 ADD PUSH0 KECCAK256 SWAP1 POP PUSH0 PUSH8 0xDE0B6B3A7640000 DUP6 PUSH2 0x6DC SWAP2 SWAP1 PUSH2 0xB8B JUMP JUMPDEST SWAP1 POP DUP2 PUSH1 0x5 ADD SLOAD TIMESTAMP GT ISZERO PUSH2 0x727 JUMPI DUP6 PUSH1 0x40 MLOAD PUSH32 0xB22AA54100000000000000000000000000000000000000000000000000000000 DUP2 MSTORE PUSH1 0x4 ADD PUSH2 0x71E SWAP2 SWAP1 PUSH2 0xACD JUMP JUMPDEST PUSH1 0x40 MLOAD DUP1 SWAP2 SUB SWAP1 REVERT JUMPDEST DUP2 PUSH1 0x4 ADD SLOAD DUP2 GT ISZERO PUSH2 0x776 JUMPI DUP1 DUP3 PUSH1 0x4 ADD SLOAD PUSH1 0x40 MLOAD PUSH32 0xBD2A227F00000000000000000000000000000000000000000000000000000000 DUP2 MSTORE PUSH1 0x4 ADD PUSH2 0x76D SWAP3 SWAP2 SWAP1 PUSH2 0xCE3 JUMP JUMPDEST PUSH1 0x40 MLOAD DUP1 SWAP2 SUB SWAP1 REVERT JUMPDEST DUP1 DUP3 PUSH1 0x4 ADD PUSH0 DUP3 DUP3 SLOAD PUSH2 0x789 SWAP2 SWAP1 PUSH2 0xD0A JUMP JUMPDEST SWAP3 POP POP DUP2 SWAP1 SSTORE POP DUP2 PUSH1 0x1 ADD PUSH0 SWAP1 SLOAD SWAP1 PUSH2 0x100 EXP SWAP1 DIV PUSH20 0xFFFFFFFFFFFFFFFFFFFFFFFFFFFFFFFFFFFFFFFF AND PUSH20 0xFFFFFFFFFFFFFFFFFFFFFFFFFFFFFFFFFFFFFFFF AND PUSH2 0x8FC DUP3 SWAP1 DUP2 ISZERO MUL SWAP1 PUSH1 0x40 MLOAD PUSH0 PUSH1 0x40 MLOAD DUP1 DUP4 SUB DUP2 DUP6 DUP9 DUP9 CALL SWAP4 POP POP POP POP ISZERO DUP1 ISZERO PUSH2 0x7F6 JUMPI RETURNDATASIZE PUSH0 DUP1 RETURNDATACOPY RETURNDATASIZE PUSH0 REVERT JUMPDEST POP DUP6 PUSH32 0xC9D92D603DC7645C578A271DC9DEC46855D3C0CDBDC48D00399A438907CFA1CB DUP3 PUSH1 0x40 MLOAD PUSH2 0x827 SWAP2 SWAP1 PUSH2 0xACD JUMP JUMPDEST PUSH1 0x40 MLOAD DUP1 SWAP2 SUB SWAP1 LOG2 POP POP POP POP POP POP JUMP JUMPDEST PUSH1 0x40 MLOAD DUP1 PUSH1 0xE0 ADD PUSH1 0x40 MSTORE DUP1 PUSH0 DUP2 MSTORE PUSH1 0x20 ADD PUSH0 PUSH20 0xFFFFFFFFFFFFFFFFFFFFFFFFFFFFFFFFFFFFFFFF AND DUP2 MSTORE PUSH1 0x20 ADD PUSH0 DUP2 MSTORE PUSH1 0x20 ADD PUSH0 DUP2 MSTORE PUSH1 0x20 ADD PUSH0 DUP2 MSTORE PUSH1 0x20 ADD PUSH0 DUP2 MSTORE PUSH1 0x20 ADD PUSH0 ISZERO ISZERO DUP2 MSTORE POP SWAP1 JUMP JUMPDEST PUSH0 DUP1 REVERT JUMPDEST PUSH0 DUP2 SWAP1 POP SWAP2 SWAP1 POP JUMP JUMPDEST PUSH2 0x89B DUP2 PUSH2 0x889 JUMP JUMPDEST DUP2 EQ PUSH2 0x8A5 JUMPI PUSH0 DUP1 REVERT JUMPDEST POP JUMP JUMPDEST PUSH0 DUP2 CALLDATALOAD SWAP1 POP PUSH2 0x8B6 DUP2 PUSH2 0x892 JUMP JUMPDEST SWAP3 SWAP2 POP POP JUMP JUMPDEST PUSH0 PUSH1 0x20 DUP3 DUP5 SUB SLT ISZERO PUSH2 0x8D1 JUMPI PUSH2 0x8D0 PUSH2 0x885 JUMP JUMPDEST JUMPDEST PUSH0 PUSH2 0x8DE DUP5 DUP3 DUP6 ADD PUSH2 0x8A8 JUMP JUMPDEST SWAP2 POP POP SWAP3 SWAP2 POP POP JUMP JUMPDEST PUSH2 0x8F0 DUP2 PUSH2 0x889 JUMP JUMPDEST DUP3 MSTORE POP POP JUMP JUMPDEST PUSH0 PUSH20 0xFFFFFFFFFFFFFFFFFFFFFFFFFFFFFFFFFFFFFFFF DUP3 AND SWAP1 POP SWAP2 SWAP1 POP JUMP JUMPDEST PUSH0 PUSH2 0x91F DUP3 PUSH2 0x8F6 JUMP JUMPDEST SWAP1 POP SWAP2 SWAP1 POP JUMP JUMPDEST PUSH2 0x92F DUP2 PUSH2 0x915 JUMP JUMPDEST DUP3 MSTORE POP POP JUMP JUMPDEST PUSH0 DUP2 ISZERO ISZERO SWAP1 POP SWAP2 SWAP1 POP JUMP JUMPDEST PUSH2 0x949 DUP2 PUSH2 0x935 JUMP JUMPDEST DUP3 MSTORE POP POP JUMP JUMPDEST PUSH1 0xE0 DUP3 ADD PUSH0 DUP3 ADD MLOAD PUSH2 0x963 PUSH0 DUP6 ADD DUP3 PUSH2 0x8E7 JUMP JUMPDEST POP PUSH1 0x20 DUP3 ADD MLOAD PUSH2 0x976 PUSH1 0x20 DUP6 ADD DUP3 PUSH2 0x926 JUMP JUMPDEST POP PUSH1 0x40 DUP3 ADD MLOAD PUSH2 0x989 PUSH1 0x40 DUP6 ADD DUP3 PUSH2 0x8E7 JUMP JUMPDEST POP PUSH1 0x60 DUP3 ADD MLOAD PUSH2 0x99C PUSH1 0x60 DUP6 ADD DUP3 PUSH2 0x8E7 JUMP JUMPDEST POP PUSH1 0x80 DUP3 ADD MLOAD PUSH2 0x9AF PUSH1 0x80 DUP6 ADD DUP3 PUSH2 0x8E7 JUMP JUMPDEST POP PUSH1 0xA0 DUP3 ADD MLOAD PUSH2 0x9C2 PUSH1 0xA0 DUP6 ADD DUP3 PUSH2 0x8E7 JUMP JUMPDEST POP PUSH1 0xC0 DUP3 ADD MLOAD PUSH2 0x9D5 PUSH1 0xC0 DUP6 ADD DUP3 PUSH2 0x940 JUMP JUMPDEST POP POP POP POP JUMP JUMPDEST PUSH0 PUSH1 0xE0 DUP3 ADD SWAP1 POP PUSH2 0x9EE PUSH0 DUP4 ADD DUP5 PUSH2 0x94F JUMP JUMPDEST SWAP3 SWAP2 POP POP JUMP JUMPDEST PUSH0 DUP1 PUSH0 DUP1 PUSH1 0x80 DUP6 DUP8 SUB SLT ISZERO PUSH2 0xA0C JUMPI PUSH2 0xA0B PUSH2 0x885 JUMP JUMPDEST JUMPDEST PUSH0 PUSH2 0xA19 DUP8 DUP3 DUP9 ADD PUSH2 0x8A8 JUMP JUMPDEST SWAP5 POP POP PUSH1 0x20 PUSH2 0xA2A DUP8 DUP3 DUP9 ADD PUSH2 0x8A8 JUMP JUMPDEST SWAP4 POP POP PUSH1 0x40 PUSH2 0xA3B DUP8 DUP3 DUP9 ADD PUSH2 0x8A8 JUMP JUMPDEST SWAP3 POP POP PUSH1 0x60 PUSH2 0xA4C DUP8 DUP3 DUP9 ADD PUSH2 0x8A8 JUMP JUMPDEST SWAP2 POP POP SWAP3 SWAP6 SWAP2 SWAP5 POP SWAP3 POP JUMP JUMPDEST PUSH2 0xA61 DUP2 PUSH2 0x935 JUMP JUMPDEST DUP3 MSTORE POP POP JUMP JUMPDEST PUSH0 PUSH1 0x20 DUP3 ADD SWAP1 POP PUSH2 0xA7A PUSH0 DUP4 ADD DUP5 PUSH2 0xA58 JUMP JUMPDEST SWAP3 SWAP2 POP POP JUMP JUMPDEST PUSH0 DUP1 PUSH1 0x40 DUP4 DUP6 SUB SLT ISZERO PUSH2 0xA96 JUMPI PUSH2 0xA95 PUSH2 0x885 JUMP JUMPDEST JUMPDEST PUSH0 PUSH2 0xAA3 DUP6 DUP3 DUP7 ADD PUSH2 0x8A8 JUMP JUMPDEST SWAP3 POP POP PUSH1 0x20 PUSH2 0xAB4 DUP6 DUP3 DUP7 ADD PUSH2 0x8A8 JUMP JUMPDEST SWAP2 POP POP SWAP3 POP SWAP3 SWAP1 POP JUMP JUMPDEST PUSH2 0xAC7 DUP2 PUSH2 0x889 JUMP JUMPDEST DUP3 MSTORE POP POP JUMP JUMPDEST PUSH0 PUSH1 0x20 DUP3 ADD SWAP1 POP PUSH2 0xAE0 PUSH0 DUP4 ADD DUP5 PUSH2 0xABE JUMP JUMPDEST SWAP3 SWAP2 POP POP JUMP JUMPDEST PUSH0 DUP3 DUP3 MSTORE PUSH1 0x20 DUP3 ADD SWAP1 POP SWAP3 SWAP2 POP POP JUMP JUMPDEST PUSH32 0x506F6C69637920697320616C726561647920696E616374697665000000000000 PUSH0 DUP3 ADD MSTORE POP JUMP JUMPDEST PUSH0 PUSH2 0xB2A PUSH1 0x1A DUP4 PUSH2 0xAE6 JUMP JUMPDEST SWAP2 POP PUSH2 0xB35 DUP3 PUSH2 0xAF6 JUMP JUMPDEST PUSH1 0x20 DUP3 ADD SWAP1 POP SWAP2 SWAP1 POP JUMP JUMPDEST PUSH0 PUSH1 0x20 DUP3 ADD SWAP1 POP DUP2 DUP2 SUB PUSH0 DUP4 ADD MSTORE PUSH2 0xB57 DUP2 PUSH2 0xB1E JUMP JUMPDEST SWAP1 POP SWAP2 SWAP1 POP JUMP JUMPDEST PUSH32 0x4E487B7100000000000000000000000000000000000000000000000000000000 PUSH0 MSTORE PUSH1 0x11 PUSH1 0x4 MSTORE PUSH1 0x24 PUSH0 REVERT JUMPDEST PUSH0 PUSH2 0xB95 DUP3 PUSH2 0x889 JUMP JUMPDEST SWAP2 POP PUSH2 0xBA0 DUP4 PUSH2 0x889 JUMP JUMPDEST SWAP3 POP DUP3 DUP3 MUL PUSH2 0xBAE DUP2 PUSH2 0x889 JUMP JUMPDEST SWAP2 POP DUP3 DUP3 DIV DUP5 EQ DUP4 ISZERO OR PUSH2 0xBC5 JUMPI PUSH2 0xBC4 PUSH2 0xB5E JUMP JUMPDEST JUMPDEST POP SWAP3 SWAP2 POP POP JUMP JUMPDEST PUSH32 0x496E636F7272656374207072656D69756D20616D6F756E740000000000000000 PUSH0 DUP3 ADD MSTORE POP JUMP JUMPDEST PUSH0 PUSH2 0xC00 PUSH1 0x18 DUP4 PUSH2 0xAE6 JUMP JUMPDEST SWAP2 POP PUSH2 0xC0B DUP3 PUSH2 0xBCC JUMP JUMPDEST PUSH1 0x20 DUP3 ADD SWAP1 POP SWAP2 SWAP1 POP JUMP JUMPDEST PUSH0 PUSH1 0x20 DUP3 ADD SWAP1 POP DUP2 DUP2 SUB PUSH0 DUP4 ADD MSTORE PUSH2 0xC2D DUP2 PUSH2 0xBF4 JUMP JUMPDEST SWAP1 POP SWAP2 SWAP1 POP JUMP JUMPDEST PUSH0 PUSH2 0xC3E DUP3 PUSH2 0x889 JUMP JUMPDEST SWAP2 POP PUSH32 0xFFFFFFFFFFFFFFFFFFFFFFFFFFFFFFFFFFFFFFFFFFFFFFFFFFFFFFFFFFFFFFFF DUP3 SUB PUSH2 0xC70 JUMPI PUSH2 0xC6F PUSH2 0xB5E JUMP JUMPDEST JUMPDEST PUSH1 0x1 DUP3 ADD SWAP1 POP SWAP2 SWAP1 POP JUMP JUMPDEST PUSH0 PUSH2 0xC85 DUP3 PUSH2 0x889 JUMP JUMPDEST SWAP2 POP PUSH2 0xC90 DUP4 PUSH2 0x889 JUMP JUMPDEST SWAP3 POP DUP3 DUP3 ADD SWAP1 POP DUP1 DUP3 GT ISZERO PUSH2 0xCA8 JUMPI PUSH2 0xCA7 PUSH2 0xB5E JUMP JUMPDEST JUMPDEST SWAP3 SWAP2 POP POP JUMP JUMPDEST PUSH0 PUSH1 0x60 DUP3 ADD SWAP1 POP PUSH2 0xCC1 PUSH0 DUP4 ADD DUP7 PUSH2 0xABE JUMP JUMPDEST PUSH2 0xCCE PUSH1 0x20 DUP4 ADD DUP6 PUSH2 0xABE JUMP JUMPDEST PUSH2 0xCDB PUSH1 0x40 DUP4 ADD DUP5 PUSH2 0xABE JUMP JUMPDEST SWAP5 SWAP4 POP POP POP POP JUMP JUMPDEST PUSH0 PUSH1 0x40 DUP3 ADD SWAP1 POP PUSH2 0xCF6 PUSH0 DUP4 ADD DUP6 PUSH2 0xABE JUMP JUMPDEST PUSH2 0xD03 PUSH1 0x20 DUP4 ADD DUP5 PUSH2 0xABE JUMP JUMPDEST SWAP4 SWAP3 POP POP POP JUMP JUMPDEST PUSH0 PUSH2 0xD14 DUP3 PUSH2 0x889 JUMP JUMPDEST SWAP2 POP PUSH2 0xD1F DUP4 PUSH2 0x889 JUMP JUMPDEST SWAP3 POP DUP3 DUP3 SUB SWAP1 POP DUP2 DUP2 GT ISZERO PUSH2 0xD37 JUMPI PUSH2 0xD36 PUSH2 0xB5E JUMP JUMPDEST JUMPDEST SWAP3 SWAP2 POP POP JUMP INVALID LOG2 PUSH5 0x6970667358 0x22 SLT KECCAK256 LOG0 LOG2 0xBF 0xC7 0xAA EXTCODECOPY PUSH10 0x96BA5FF0A112639C7C9 0xF7 0xD6 SAR SHL 0xF8 0xD0 BLOBHASH COINBASE 0xC0 DUP12 DUP10 0xE5 0xB6 0xDD 0x4F PUSH5 0x736F6C6343 STOP ADDMOD BYTE STOP CALLER "
				},
				"gasEstimates": {
					"creation": {
						"codeDepositCost": "688600",
						"executionCost": "719",
						"totalCost": "689319"
					},
					"external": {
						"cancelPolicy(uint256)": "infinite",
						"claimPolicy(uint256,uint256)": "infinite",
						"getPolicy(uint256)": "infinite",
						"hasActivePolicy(uint256)": "7200",
						"purchasePolicy(uint256,uint256,uint256,uint256)": "infinite"
					}
				},
				"methodIdentifiers": {
					"cancelPolicy(uint256)": "b20e8bcc",
					"claimPolicy(uint256,uint256)": "ce81967d",
					"getPolicy(uint256)": "2b07fce3",
					"hasActivePolicy(uint256)": "cd127e79",
					"purchasePolicy(uint256,uint256,uint256,uint256)": "cbb70082"
				}
			},
			"storageLayout": {
				"storage": [
					{
						"astId": 19,
						"contract": "Insurance.sol:Insurance",
						"label": "policyCounter",
						"offset": 0,
						"slot": "0",
						"type": "t_uint256"
					},
					{
						"astId": 24,
						"contract": "Insurance.sol:Insurance",
						"label": "policies",
						"offset": 0,
						"slot": "1",
						"type": "t_mapping(t_uint256,t_struct(Policy)17_storage)"
					},
					{
						"astId": 28,
						"contract": "Insurance.sol:Insurance",
						"label": "vehicleToPolicy",
						"offset": 0,
						"slot": "2",
						"type": "t_mapping(t_uint256,t_uint256)"
					}
				],
				"types": {
					"t_address": {
						"encoding": "inplace",
						"label": "address",
						"numberOfBytes": "20"
					},
					"t_bool": {
						"encoding": "inplace",
						"label": "bool",
						"numberOfBytes": "1"
					},
					"t_mapping(t_uint256,t_struct(Policy)17_storage)": {
						"encoding": "mapping",
						"key": "t_uint256",
						"label": "mapping(uint256 => struct Insurance.Policy)",
						"numberOfBytes": "32",
						"value": "t_struct(Policy)17_storage"
					},
					"t_mapping(t_uint256,t_uint256)": {
						"encoding": "mapping",
						"key": "t_uint256",
						"label": "mapping(uint256 => uint256)",
						"numberOfBytes": "32",
						"value": "t_uint256"
					},
					"t_struct(Policy)17_storage": {
						"encoding": "inplace",
						"label": "struct Insurance.Policy",
						"members": [
							{
								"astId": 4,
								"contract": "Insurance.sol:Insurance",
								"label": "policyId",
								"offset": 0,
								"slot": "0",
								"type": "t_uint256"
							},
							{
								"astId": 6,
								"contract": "Insurance.sol:Insurance",
								"label": "vehicleOwner",
								"offset": 0,
								"slot": "1",
								"type": "t_address"
							},
							{
								"astId": 8,
								"contract": "Insurance.sol:Insurance",
								"label": "vehicleId",
								"offset": 0,
								"slot": "2",
								"type": "t_uint256"
							},
							{
								"astId": 10,
								"contract": "Insurance.sol:Insurance",
								"label": "premium",
								"offset": 0,
								"slot": "3",
								"type": "t_uint256"
							},
							{
								"astId": 12,
								"contract": "Insurance.sol:Insurance",
								"label": "coverageAmount",
								"offset": 0,
								"slot": "4",
								"type": "t_uint256"
							},
							{
								"astId": 14,
								"contract": "Insurance.sol:Insurance",
								"label": "expirationDate",
								"offset": 0,
								"slot": "5",
								"type": "t_uint256"
							},
							{
								"astId": 16,
								"contract": "Insurance.sol:Insurance",
								"label": "isActive",
								"offset": 0,
								"slot": "6",
								"type": "t_bool"
							}
						],
						"numberOfBytes": "224"
					},
					"t_uint256": {
						"encoding": "inplace",
						"label": "uint256",
						"numberOfBytes": "32"
					}
				}
			},
			"userdoc": {
				"events": {
					"PolicyPurchased(uint256,address,uint256,uint256,uint256,uint256)": {
						"notice": "Emitted when a new insurance policy is purchased"
					}
				},
				"kind": "user",
				"methods": {
					"cancelPolicy(uint256)": {
						"notice": "Cancels an insurance policy"
					},
					"claimPolicy(uint256,uint256)": {
						"notice": "Claims an insurance policy"
					},
					"getPolicy(uint256)": {
						"notice": "Retrieves the details of a policy"
					},
					"hasActivePolicy(uint256)": {
						"notice": "Checks if a vehicle has an active policy"
					},
					"purchasePolicy(uint256,uint256,uint256,uint256)": {
						"notice": "Purchases an insurance policy for a vehicle"
					}
				},
				"notice": "Manages insurance policies for vehicles in the Vehicle Rental System",
				"version": 1
			}
		}
	}
}